Component: ARM Compiler 5.06 update 1 (build 61) Tool: armlink [4d35a8]

==============================================================================

Section Cross References

    main.o(i.Show_OLED_BH) refers to printfa.o(i.__0sprintf) for __2sprintf
    main.o(i.Show_OLED_BH) refers to oled.o(i.OLED_ShowString) for OLED_ShowString
    main.o(i.main) refers to system_stm32f10x_1.o(i.SystemInit) for SystemInit
    main.o(i.main) refers to uart1_1.o(i.Uart1_Init) for Uart1_Init
    main.o(i.main) refers to myiic_1.o(i.MY_IIC_Init) for MY_IIC_Init
    main.o(i.main) refers to bh_gy30.o(i.BH_Init) for BH_Init
    main.o(i.main) refers to oled.o(i.OLED_Init) for OLED_Init
    main.o(i.main) refers to oled.o(i.OLED_Clear) for OLED_Clear
    main.o(i.main) refers to printfa.o(i.__0printf) for __2printf
    main.o(i.main) refers to dht11.o(i.DHT11_Init) for DHT11_Init
    main.o(i.main) refers to delay.o(i.delay_ms) for delay_ms
    main.o(i.main) refers to adc1.o(i.ADC1_Init) for ADC1_Init
    main.o(i.main) refers to pir.o(i.pir_INIT) for pir_INIT
    main.o(i.main) refers to ls.o(i.LS_INIT) for LS_INIT
    main.o(i.main) refers to huoer.o(i.huoer_INIT) for huoer_INIT
    main.o(i.main) refers to bh_gy30.o(i.BH_Read) for BH_Read
    main.o(i.main) refers to main.o(i.Show_OLED_BH) for Show_OLED_BH
    main.o(i.main) refers to dht11.o(i.DHT11_Read_Data) for DHT11_Read_Data
==============================================================================

Removing Unused input sections from the image.

    Removing delay.o(i.delay_s), (26 bytes).
    Removing sys.o(.emb_text), (6 bytes).
    Removing sys.o(i.INTX_DISABLE), (4 bytes).
    Removing sys.o(i.INTX_ENABLE), (4 bytes).
    Removing sys.o(i.WFI_SET), (4 bytes).
    Removing system_stm32f10x_1.o(i.SystemCoreClockUpdate), (164 bytes).
    Removing system_stm32f10x_1.o(.data), (20 bytes).
    Removing core_cm3.o(.emb_text), (32 bytes).
    Removing startup_stm32f10x_hd.o(HEAP), (512 bytes).
    Removing misc.o(i.NVIC_PriorityGroupConfig), (20 bytes).
    Removing misc.o(i.NVIC_SetVectorTable), (20 bytes).
    Removing misc.o(i.NVIC_SystemLPConfig), (32 bytes).
    Removing misc.o(i.SysTick_CLKSourceConfig), (40 bytes).
    Removing stm32f10x_adc.o(i.ADC_AnalogWatchdogCmd), (20 bytes).
    Removing stm32f10x_adc.o(i.ADC_AnalogWatchdogSingleChannelConfig), (16 bytes).
    Removing stm32f10x_adc.o(i.ADC_AnalogWatchdogThresholdsConfig), (6 bytes).
    Removing stm32f10x_adc.o(i.ADC_AutoInjectedConvCmd), (22 bytes).
    Removing stm32f10x_adc.o(i.ADC_ClearFlag), (6 bytes).
==============================================================================

Image Symbol Table

    Local Symbols

    Symbol Name                              Value     Ov Type        Size  Object(Section)

    ../clib/microlib/division.c              0x00000000   Number         0  ldiv.o ABSOLUTE
    ../clib/microlib/division.c              0x00000000   Number         0  uldiv.o ABSOLUTE
    ../clib/microlib/division.c              0x00000000   Number         0  uidiv.o ABSOLUTE
    ../clib/microlib/errno.c                 0x00000000   Number         0  errno.o ABSOLUTE
    ../clib/microlib/init/entry.s            0x00000000   Number         0  entry10b.o ABSOLUTE
    ../clib/microlib/init/entry.s            0x00000000   Number         0  entry11a.o ABSOLUTE
    ../clib/microlib/init/entry.s            0x00000000   Number         0  entry2.o ABSOLUTE
    ../clib/microlib/init/entry.s            0x00000000   Number         0  entry.o ABSOLUTE
    ../clib/microlib/init/entry.s            0x00000000   Number         0  entry10a.o ABSOLUTE
    ../clib/microlib/init/entry.s            0x00000000   Number         0  entry9b.o ABSOLUTE
    ../clib/microlib/init/entry.s            0x00000000   Number         0  entry9a.o ABSOLUTE
    ../clib/microlib/init/entry.s            0x00000000   Number         0  entry8b.o ABSOLUTE
    ../clib/microlib/init/entry.s            0x00000000   Number         0  entry8a.o ABSOLUTE
    ../clib/microlib/init/entry.s            0x00000000   Number         0  entry5.o ABSOLUTE
    ../clib/microlib/init/entry.s            0x00000000   Number         0  entry7a.o ABSOLUTE
    ../clib/microlib/init/entry.s            0x00000000   Number         0  entry7b.o ABSOLUTE
    ../clib/microlib/init/entry.s            0x00000000   Number         0  entry11b.o ABSOLUTE
    ../clib/microlib/longlong.c              0x00000000   Number         0  llsshr.o ABSOLUTE
    ../clib/microlib/longlong.c              0x00000000   Number         0  llshl.o ABSOLUTE
    ../clib/microlib/longlong.c              0x00000000   Number         0  llushr.o ABSOLUTE
    ../clib/microlib/printf/printf.c         0x00000000   Number         0  printfa.o ABSOLUTE
    ../clib/microlib/printf/printf.c         0x00000000   Number         0  printf8.o ABSOLUTE
    ../clib/microlib/printf/printf.c         0x00000000   Number         0  printf7.o ABSOLUTE
    ../clib/microlib/printf/printf.c         0x00000000   Number         0  printf2.o ABSOLUTE
    ../clib/microlib/printf/printf.c         0x00000000   Number         0  printf6.o ABSOLUTE
    ../clib/microlib/printf/printf.c         0x00000000   Number         0  printf1.o ABSOLUTE
    ../clib/microlib/printf/printf.c         0x00000000   Number         0  printfb.o ABSOLUTE
    ../clib/microlib/printf/printf.c         0x00000000   Number         0  printf0.o ABSOLUTE
    ../clib/microlib/printf/printf.c         0x00000000   Number         0  printf5.o ABSOLUTE
    ../clib/microlib/printf/printf.c         0x00000000   Number         0  printf4.o ABSOLUTE
    ../clib/microlib/printf/printf.c         0x00000000   Number         0  printf3.o ABSOLUTE
    ../clib/microlib/printf/stubs.s          0x00000000   Number         0  stubs.o ABSOLUTE
    ../clib/microlib/string/memcmp.c         0x00000000   Number         0  memcmp.o ABSOLUTE
    ../clib/microlib/string/memset.c         0x00000000   Number         0  memseta.o ABSOLUTE
    ../clib/microlib/stubs.s                 0x00000000   Number         0  iusefp.o ABSOLUTE
    ../clib/microlib/stubs.s                 0x00000000   Number         0  useno.o ABSOLUTE
    ../fplib/microlib/d2f.c                  0x00000000   Number         0  d2f.o ABSOLUTE
    ../fplib/microlib/f2d.c                  0x00000000   Number         0  f2d.o ABSOLUTE
    ../fplib/microlib/fpadd.c                0x00000000   Number         0  fadd.o ABSOLUTE
    ../fplib/microlib/fpadd.c                0x00000000   Number         0  dadd.o ABSOLUTE
    ../fplib/microlib/fpdiv.c                0x00000000   Number         0  ddiv.o ABSOLUTE
    ../fplib/microlib/fpdiv.c                0x00000000   Number         0  fdiv.o ABSOLUTE
    ../fplib/microlib/fpepilogue.c           0x00000000   Number         0  depilogue.o ABSOLUTE
    ../fplib/microlib/fpepilogue.c           0x00000000   Number         0  fepilogue.o ABSOLUTE
    ../fplib/microlib/fpfix.c                0x00000000   Number         0  ffixi.o ABSOLUTE
    ../fplib/microlib/fpfix.c                0x00000000   Number         0  ffixui.o ABSOLUTE
    ../fplib/microlib/fpfix.c                0x00000000   Number         0  dfixul.o ABSOLUTE
    ../fplib/microlib/fpflt.c                0x00000000   Number         0  fflti.o ABSOLUTE
    ../fplib/microlib/fpflt.c                0x00000000   Number         0  ffltui.o ABSOLUTE
    ../fplib/microlib/fpflt.c                0x00000000   Number         0  dflti.o ABSOLUTE
    ../fplib/microlib/fpmul.c                0x00000000   Number         0  fmul.o ABSOLUTE
    ../fplib/microlib/fpmul.c                0x00000000   Number         0  dmul.o ABSOLUTE
    ../fplib/microlib/fpscalb.c              0x00000000   Number         0  dscalb.o ABSOLUTE
    ../fplib/microlib/fpsqrt.c               0x00000000   Number         0  dsqrt.o ABSOLUTE
    ../mathlib/asin.c                        0x00000000   Number         0  asin.o ABSOLUTE
    ../mathlib/asin.c                        0x00000000   Number         0  asin_x.o ABSOLUTE
    ../mathlib/atan.c                        0x00000000   Number         0  atan_x.o ABSOLUTE
    ../mathlib/atan.c                        0x00000000   Number         0  atan.o ABSOLUTE
    ../mathlib/atan2.c                       0x00000000   Number         0  atan2.o ABSOLUTE
    ../mathlib/atan2.c                       0x00000000   Number         0  atan2_x.o ABSOLUTE
    ../mathlib/dunder.c                      0x00000000   Number         0  dunder.o ABSOLUTE
    ../mathlib/fpclassify.c                  0x00000000   Number         0  fpclassify.o ABSOLUTE
    ../mathlib/poly.c                        0x00000000   Number         0  poly.o ABSOLUTE
    ../mathlib/qnan.c                        0x00000000   Number         0  qnan.o ABSOLUTE
    ../mathlib/sqrt.c                        0x00000000   Number         0  sqrt_x.o ABSOLUTE
    ../mathlib/sqrt.c                        0x00000000   Number         0  sqrt.o ABSOLUTE
    ..\BSP\IIC\IIC.c                         0x00000000   Number         0  iic_1.o ABSOLUTE
    ..\BSP\TIME23\TIME.c                     0x00000000   Number         0  time_1.o ABSOLUTE
    ..\BSP\UART1\uart1.c                     0x00000000   Number         0  uart1_1.o ABSOLUTE
    ..\BSP\myiic\myiic.c                     0x00000000   Number         0  myiic_1.o ABSOLUTE
    ..\CORE\core_cm3.c                       0x00000000   Number         0  core_cm3.o ABSOLUTE
    ..\CORE\startup_stm32f10x_hd.s           0x00000000   Number         0  startup_stm32f10x_hd.o ABSOLUTE
    ..\HARDWARE\ADC\adc1.c                   0x00000000   Number         0  adc1.o ABSOLUTE
    ..\HARDWARE\BH_GY30\bh_gy30.c            0x00000000   Number         0  bh_gy30.o ABSOLUTE
    ..\HARDWARE\DHT11\dht11.c                0x00000000   Number         0  dht11.o ABSOLUTE
    ..\HARDWARE\HC-SR501\pir.c               0x00000000   Number         0  pir.o ABSOLUTE
    ..\HARDWARE\HUOER\huoer.c                0x00000000   Number         0  huoer.o ABSOLUTE
    ..\HARDWARE\LED\led.c                    0x00000000   Number         0  led.o ABSOLUTE
    ..\HARDWARE\Light-Sensitive\ls.c         0x00000000   Number         0  ls.o ABSOLUTE
    ..\HARDWARE\MPU6050\DMP\inv_mpu.c        0x00000000   Number         0  inv_mpu.o ABSOLUTE
    ..\HARDWARE\MPU6050\DMP\inv_mpu_dmp_motion_driver.c 0x00000000   Number         0  inv_mpu_dmp_motion_driver.o ABSOLUTE
    ..\HARDWARE\MPU6050\MPU6050.c            0x00000000   Number         0  mpu6050.o ABSOLUTE
    ..\HARDWARE\OLED\oled.c                  0x00000000   Number         0  oled.o ABSOLUTE
    ..\STM32F10x_FWLib\src\misc.c            0x00000000   Number         0  misc.o ABSOLUTE
    ..\STM32F10x_FWLib\src\stm32f10x_adc.c   0x00000000   Number         0  stm32f10x_adc.o ABSOLUTE
    ..\STM32F10x_FWLib\src\stm32f10x_bkp.c   0x00000000   Number         0  stm32f10x_bkp.o ABSOLUTE
    ..\STM32F10x_FWLib\src\stm32f10x_can.c   0x00000000   Number         0  stm32f10x_can.o ABSOLUTE
    ..\STM32F10x_FWLib\src\stm32f10x_cec.c   0x00000000   Number         0  stm32f10x_cec.o ABSOLUTE
    ..\STM32F10x_FWLib\src\stm32f10x_crc.c   0x00000000   Number         0  stm32f10x_crc.o ABSOLUTE
    ..\STM32F10x_FWLib\src\stm32f10x_dac.c   0x00000000   Number         0  stm32f10x_dac.o ABSOLUTE
    ..\STM32F10x_FWLib\src\stm32f10x_dbgmcu.c 0x00000000   Number         0  stm32f10x_dbgmcu.o ABSOLUTE
    ..\STM32F10x_FWLib\src\stm32f10x_dma.c   0x00000000   Number         0  stm32f10x_dma.o ABSOLUTE
    ..\STM32F10x_FWLib\src\stm32f10x_exti.c  0x00000000   Number         0  stm32f10x_exti.o ABSOLUTE
    ..\STM32F10x_FWLib\src\stm32f10x_flash.c 0x00000000   Number         0  stm32f10x_flash.o ABSOLUTE
    ..\STM32F10x_FWLib\src\stm32f10x_fsmc.c  0x00000000   Number         0  stm32f10x_fsmc.o ABSOLUTE
    ..\STM32F10x_FWLib\src\stm32f10x_gpio.c  0x00000000   Number         0  stm32f10x_gpio.o ABSOLUTE
    ..\STM32F10x_FWLib\src\stm32f10x_i2c.c   0x00000000   Number         0  stm32f10x_i2c.o ABSOLUTE
    ..\STM32F10x_FWLib\src\stm32f10x_iwdg.c  0x00000000   Number         0  stm32f10x_iwdg.o ABSOLUTE
    ..\STM32F10x_FWLib\src\stm32f10x_pwr.c   0x00000000   Number         0  stm32f10x_pwr.o ABSOLUTE
    ..\STM32F10x_FWLib\src\stm32f10x_rcc.c   0x00000000   Number         0  stm32f10x_rcc.o ABSOLUTE
    ..\STM32F10x_FWLib\src\stm32f10x_rtc.c   0x00000000   Number         0  stm32f10x_rtc.o ABSOLUTE
    ..\STM32F10x_FWLib\src\stm32f10x_sdio.c  0x00000000   Number         0  stm32f10x_sdio.o ABSOLUTE
    ..\STM32F10x_FWLib\src\stm32f10x_spi.c   0x00000000   Number         0  stm32f10x_spi.o ABSOLUTE
    ..\STM32F10x_FWLib\src\stm32f10x_tim.c   0x00000000   Number         0  stm32f10x_tim.o ABSOLUTE
    ..\STM32F10x_FWLib\src\stm32f10x_usart.c 0x00000000   Number         0  stm32f10x_usart.o ABSOLUTE
    ..\STM32F10x_FWLib\src\stm32f10x_wwdg.c  0x00000000   Number         0  stm32f10x_wwdg.o ABSOLUTE
    ..\SYSTEM\delay\delay.c                  0x00000000   Number         0  delay.o ABSOLUTE
    ..\SYSTEM\stm32f10x_it.c                 0x00000000   Number         0  stm32f10x_it_1.o ABSOLUTE
    ..\SYSTEM\sys\sys.c                      0x00000000   Number         0  sys.o ABSOLUTE
    ..\SYSTEM\system_stm32f10x.c             0x00000000   Number         0  system_stm32f10x_1.o ABSOLUTE
    ..\\CORE\\core_cm3.c                     0x00000000   Number         0  core_cm3.o ABSOLUTE
    ..\\SYSTEM\\sys\\sys.c                   0x00000000   Number         0  sys.o ABSOLUTE
    cdcmple.s                                0x00000000   Number         0  cdcmple.o ABSOLUTE
    cdrcmple.s                               0x00000000   Number         0  cdrcmple.o ABSOLUTE
    cfcmple.s                                0x00000000   Number         0  cfcmple.o ABSOLUTE
    cfrcmple.s                               0x00000000   Number         0  cfrcmple.o ABSOLUTE
    dc.s                                     0x00000000   Number         0  dc.o ABSOLUTE
    handlers.s                               0x00000000   Number         0  handlers.o ABSOLUTE
    init.s                                   0x00000000   Number         0  init.o ABSOLUTE
    main.c                                   0x00000000   Number         0  main.o ABSOLUTE
    RESET                                    0x08000000   Section      304  startup_stm32f10x_hd.o(RESET)
    .ARM.Collect$$$$00000000                 0x08000130   Section        0  entry.o(.ARM.Collect$$$$00000000)
    .ARM.Collect$$$$00000001                 0x08000130   Section        4  entry2.o(.ARM.Collect$$$$00000001)
    .ARM.Collect$$$$00000004                 0x08000134   Section        4  entry5.o(.ARM.Collect$$$$00000004)
    .ARM.Collect$$$$00000008                 0x08000138   Section        0  entry7b.o(.ARM.Collect$$$$00000008)
    .ARM.Collect$$$$0000000A                 0x08000138   Section        0  entry8b.o(.ARM.Collect$$$$0000000A)
    .ARM.Collect$$$$0000000B                 0x08000138   Section        8  entry9a.o(.ARM.Collect$$$$0000000B)
    .ARM.Collect$$$$0000000D                 0x08000140   Section        0  entry10a.o(.ARM.Collect$$$$0000000D)
    .ARM.Collect$$$$0000000F                 0x08000140   Section        0  entry11a.o(.ARM.Collect$$$$0000000F)
    .ARM.Collect$$$$00002712                 0x08000140   Section        4  entry2.o(.ARM.Collect$$$$00002712)
    __lit__00000000                          0x08000140   Data           4  entry2.o(.ARM.Collect$$$$00002712)
    .text                                    0x08000144   Section       36  startup_stm32f10x_hd.o(.text)
    .text                                    0x08000168   Section        0  memseta.o(.text)
    .text                                    0x0800018c   Section        0  fadd.o(.text)
    .text                                    0x0800023c   Section        0  fmul.o(.text)
    .text                                    0x080002a0   Section        0  fdiv.o(.text)
    .text                                    0x0800031c   Section        0  dadd.o(.text)
    .text                                    0x0800046a   Section        0  dmul.o(.text)
    .text                                    0x0800054e   Section        0  ddiv.o(.text)
    .text                                    0x0800062c   Section        0  fflti.o(.text)
    .text                                    0x0800063e   Section        0  dflti.o(.text)
    .text                                    0x08000660   Section        0  f2d.o(.text)
    .text                                    0x08000686   Section        0  d2f.o(.text)
    .text                                    0x080006be   Section        0  uidiv.o(.text)
    .text                                    0x080006ea   Section        0  uldiv.o(.text)
    .text                                    0x0800074c   Section        0  llshl.o(.text)
    .text                                    0x0800076a   Section        0  llsshr.o(.text)
    .text                                    0x0800078e   Section        0  fepilogue.o(.text)
    .text                                    0x0800078e   Section        0  iusefp.o(.text)
    .text                                    0x080007fc   Section        0  depilogue.o(.text)
    .text                                    0x080008b6   Section        0  dscalb.o(.text)
    .text                                    0x080008e4   Section        0  dfixul.o(.text)
    .text                                    0x08000914   Section       48  cdrcmple.o(.text)
    .text                                    0x08000944   Section       36  init.o(.text)
    .text                                    0x08000968   Section        0  llushr.o(.text)
    .text                                    0x08000988   Section        0  dsqrt.o(.text)
    i.ADC1_Init                              0x08000a2c   Section        0  adc1.o(i.ADC1_Init)
    i.ADC_Cmd                                0x08000a98   Section        0  stm32f10x_adc.o(i.ADC_Cmd)
    i.ADC_GetConversionValue                 0x08000aae   Section        0  stm32f10x_adc.o(i.ADC_GetConversionValue)
    i.ADC_GetFlagStatus                      0x08000ab6   Section        0  stm32f10x_adc.o(i.ADC_GetFlagStatus)
    i.ADC_ITConfig                           0x08000ac8   Section        0  stm32f10x_adc.o(i.ADC_ITConfig)
    i.ADC_Init                               0x08000ae0   Section        0  stm32f10x_adc.o(i.ADC_Init)
    i.ADC_RegularChannelConfig               0x08000b30   Section        0  stm32f10x_adc.o(i.ADC_RegularChannelConfig)
    i.ADC_SoftwareStartConvCmd               0x08000be8   Section        0  stm32f10x_adc.o(i.ADC_SoftwareStartConvCmd)
    i.ADC_Trans                              0x08000c00   Section        0  adc1.o(i.ADC_Trans)
    i.BH_Init                                0x08000c40   Section        0  bh_gy30.o(i.BH_Init)
    i.BH_Read                                0x08000c56   Section        0  bh_gy30.o(i.BH_Read)
    i.BH_Write                               0x08000c8a   Section        0  bh_gy30.o(i.BH_Write)
    i.BusFault_Handler                       0x08000cb2   Section        0  stm32f10x_it_1.o(i.BusFault_Handler)
    i.DHT11_Check                            0x08000cb8   Section        0  dht11.o(i.DHT11_Check)
    i.DHT11_Init                             0x08000d1c   Section        0  dht11.o(i.DHT11_Init)
    i.DHT11_Read_Bit                         0x08000d5c   Section        0  dht11.o(i.DHT11_Read_Bit)
    i.DHT11_Read_Byte                        0x08000da8   Section        0  dht11.o(i.DHT11_Read_Byte)
    i.DHT11_Read_Data                        0x08000dc6   Section        0  dht11.o(i.DHT11_Read_Data)
    i.DHT11_Rst                              0x08000e20   Section        0  dht11.o(i.DHT11_Rst)
    i.DebugMon_Handler                       0x08000e60   Section        0  stm32f10x_it_1.o(i.DebugMon_Handler)
    i.GPIO_Init                              0x08000e62   Section        0  stm32f10x_gpio.o(i.GPIO_Init)
    i.GPIO_ReadInputDataBit                  0x08000f78   Section        0  stm32f10x_gpio.o(i.GPIO_ReadInputDataBit)
    i.GPIO_SetBits                           0x08000f8a   Section        0  stm32f10x_gpio.o(i.GPIO_SetBits)
    i.HW_check                               0x08000f90   Section        0  pir.o(i.HW_check)
    i.HardFault_Handler                      0x08000fa8   Section        0  stm32f10x_it_1.o(i.HardFault_Handler)
    i.IIC_Ack                                0x08000fac   Section        0  iic_1.o(i.IIC_Ack)
    i.IIC_Delay                              0x08000ff8   Section        0  iic_1.o(i.IIC_Delay)
    i.IIC_NAck                               0x08001004   Section        0  iic_1.o(i.IIC_NAck)
    i.IIC_Read_Byte                          0x08001050   Section        0  iic_1.o(i.IIC_Read_Byte)
    i.IIC_Send_Byte                          0x080010bc   Section        0  iic_1.o(i.IIC_Send_Byte)
    i.IIC_Start                              0x0800112c   Section        0  iic_1.o(i.IIC_Start)
    i.IIC_Stop                               0x08001194   Section        0  iic_1.o(i.IIC_Stop)
    i.IIC_Wait_Ack                           0x080011dc   Section        0  iic_1.o(i.IIC_Wait_Ack)
    i.LS_INIT                                0x08001244   Section        0  ls.o(i.LS_INIT)
    i.LS_check                               0x08001270   Section        0  ls.o(i.LS_check)
    i.MY_IIC_Ack                             0x08001288   Section        0  myiic_1.o(i.MY_IIC_Ack)
    i.MY_IIC_Init                            0x080012c0   Section        0  myiic_1.o(i.MY_IIC_Init)
    i.MY_IIC_NAck                            0x080012f4   Section        0  myiic_1.o(i.MY_IIC_NAck)
    i.MY_IIC_Read_Byte                       0x0800132c   Section        0  myiic_1.o(i.MY_IIC_Read_Byte)
    i.MY_IIC_Send_Byte                       0x08001384   Section        0  myiic_1.o(i.MY_IIC_Send_Byte)
    i.MY_IIC_Start                           0x080013d4   Section        0  myiic_1.o(i.MY_IIC_Start)
    i.MY_IIC_Stop                            0x0800140c   Section        0  myiic_1.o(i.MY_IIC_Stop)
    i.MY_IIC_Wait_Ack                        0x08001440   Section        0  myiic_1.o(i.MY_IIC_Wait_Ack)
    i.MY_SDA_IN                              0x0800148c   Section        0  myiic_1.o(i.MY_SDA_IN)
    i.MY_SDA_OUT                             0x080014b0   Section        0  myiic_1.o(i.MY_SDA_OUT)
    i.MY_iicDevWriteByte                     0x080014d4   Section        0  myiic_1.o(i.MY_iicDevWriteByte)
    i.MemManage_Handler                      0x08001504   Section        0  stm32f10x_it_1.o(i.MemManage_Handler)
    i.NMI_Handler                            0x08001508   Section        0  stm32f10x_it_1.o(i.NMI_Handler)
    i.NVIC_Init                              0x0800150c   Section        0  misc.o(i.NVIC_Init)
    i.OLED_Clear                             0x0800157c   Section        0  oled.o(i.OLED_Clear)
    i.OLED_Init                              0x080015ba   Section        0  oled.o(i.OLED_Init)
    i.OLED_Set_Pos                           0x08001696   Section        0  oled.o(i.OLED_Set_Pos)
    i.OLED_ShowChar                          0x080016c0   Section        0  oled.o(i.OLED_ShowChar)
    i.OLED_ShowString                        0x08001764   Section        0  oled.o(i.OLED_ShowString)
    i.OLED_WR_Byte                           0x0800179e   Section        0  oled.o(i.OLED_WR_Byte)
    i.PendSV_Handler                         0x080017be   Section        0  stm32f10x_it_1.o(i.PendSV_Handler)
    i.RCC_APB2PeriphClockCmd                 0x080017c0   Section        0  stm32f10x_rcc.o(i.RCC_APB2PeriphClockCmd)
    i.RCC_GetClocksFreq                      0x080017e0   Section        0  stm32f10x_rcc.o(i.RCC_GetClocksFreq)
    i.Read_DMP                               0x080018b4   Section        0  mpu6050.o(i.Read_DMP)
    i.SVC_Handler                            0x08001b10   Section        0  stm32f10x_it_1.o(i.SVC_Handler)
    i.SetSysClock                            0x08001b12   Section        0  system_stm32f10x_1.o(i.SetSysClock)
    SetSysClock                              0x08001b13   Thumb Code     8  system_stm32f10x_1.o(i.SetSysClock)
    i.SetSysClockTo72                        0x08001b1c   Section        0  system_stm32f10x_1.o(i.SetSysClockTo72)
    SetSysClockTo72                          0x08001b1d   Thumb Code   214  system_stm32f10x_1.o(i.SetSysClockTo72)
    i.Show_OLED_BH                           0x08001bfc   Section        0  main.o(i.Show_OLED_BH)
    i.SysTick_Handler                        0x08001cc0   Section        0  stm32f10x_it_1.o(i.SysTick_Handler)
    i.SystemInit                             0x08001cc4   Section        0  system_stm32f10x_1.o(i.SystemInit)
    i.TIM2_IRQHandler                        0x08001d24   Section        0  time_1.o(i.TIM2_IRQHandler)
    i.TIM_ClearITPendingBit                  0x08001db0   Section        0  stm32f10x_tim.o(i.TIM_ClearITPendingBit)
    i.TIM_GetITStatus                        0x08001db6   Section        0  stm32f10x_tim.o(i.TIM_GetITStatus)
    i.USART1_IRQHandler                      0x08001dd8   Section        0  uart1_1.o(i.USART1_IRQHandler)
    i.USART_Cmd                              0x08001df8   Section        0  stm32f10x_usart.o(i.USART_Cmd)
    i.USART_GetITStatus                      0x08001e10   Section        0  stm32f10x_usart.o(i.USART_GetITStatus)
    i.USART_ITConfig                         0x08001e64   Section        0  stm32f10x_usart.o(i.USART_ITConfig)
    i.USART_Init                             0x08001eb0   Section        0  stm32f10x_usart.o(i.USART_Init)
    i.USART_ReceiveData                      0x08001f88   Section        0  stm32f10x_usart.o(i.USART_ReceiveData)
    i.Uart1_Init                             0x08001f94   Section        0  uart1_1.o(i.Uart1_Init)
    i.Uart1_Rx_Clean                         0x08002038   Section        0  uart1_1.o(i.Uart1_Rx_Clean)
    i.UsageFault_Handler                     0x0800204c   Section        0  stm32f10x_it_1.o(i.UsageFault_Handler)
    i.__0printf                              0x08002050   Section        0  printfa.o(i.__0printf)
    i.__0sprintf                             0x08002070   Section        0  printfa.o(i.__0sprintf)
    i.__ARM_fpclassify                       0x08002098   Section        0  fpclassify.o(i.__ARM_fpclassify)
    i.__kernel_poly                          0x080020c0   Section        0  poly.o(i.__kernel_poly)
    i.__mathlib_dbl_infnan                   0x0800216a   Section        0  dunder.o(i.__mathlib_dbl_infnan)
    i.__mathlib_dbl_infnan2                  0x08002170   Section        0  dunder.o(i.__mathlib_dbl_infnan2)
    i.__mathlib_dbl_invalid                  0x08002174   Section        0  dunder.o(i.__mathlib_dbl_invalid)
    i.__mathlib_dbl_underflow                0x08002180   Section        0  dunder.o(i.__mathlib_dbl_underflow)
    i.__scatterload_copy                     0x08002190   Section       14  handlers.o(i.__scatterload_copy)
    i.__scatterload_null                     0x0800219e   Section        2  handlers.o(i.__scatterload_null)
    i.__scatterload_zeroinit                 0x080021a0   Section       14  handlers.o(i.__scatterload_zeroinit)
    i.__set_errno                            0x080021b0   Section        0  errno.o(i.__set_errno)
    i._fp_digits                             0x080021bc   Section        0  printfa.o(i._fp_digits)
    _fp_digits                               0x080021bd   Thumb Code   334  printfa.o(i._fp_digits)
    i._printf_core                           0x08002320   Section        0  printfa.o(i._printf_core)
    _printf_core                             0x08002321   Thumb Code  1744  printfa.o(i._printf_core)
    i._printf_post_padding                   0x080029fc   Section        0  printfa.o(i._printf_post_padding)
    _printf_post_padding                     0x080029fd   Thumb Code    36  printfa.o(i._printf_post_padding)
    i._printf_pre_padding                    0x08002a20   Section        0  printfa.o(i._printf_pre_padding)
    _printf_pre_padding                      0x08002a21   Thumb Code    46  printfa.o(i._printf_pre_padding)
    i._sputc                                 0x08002a4e   Section        0  printfa.o(i._sputc)
    _sputc                                   0x08002a4f   Thumb Code    10  printfa.o(i._sputc)
    i.asin                                   0x08002a58   Section        0  asin.o(i.asin)
    i.atan                                   0x08002cc8   Section        0  atan.o(i.atan)
    i.atan2                                  0x08002ee8   Section        0  atan2.o(i.atan2)
    i.decode_gesture                         0x08003068   Section        0  inv_mpu_dmp_motion_driver.o(i.decode_gesture)
    decode_gesture                           0x08003069   Thumb Code    94  inv_mpu_dmp_motion_driver.o(i.decode_gesture)
    i.delay_ms                               0x080030cc   Section        0  delay.o(i.delay_ms)
    i.delay_us                               0x080030e6   Section        0  delay.o(i.delay_us)
    i.dmp_read_fifo                          0x08003114   Section        0  inv_mpu_dmp_motion_driver.o(i.dmp_read_fifo)
    i.fputc                                  0x080032e0   Section        0  uart1_1.o(i.fputc)
    i.huoer_INIT                             0x080032fc   Section        0  huoer.o(i.huoer_INIT)
    i.huoer_check                            0x08003328   Section        0  huoer.o(i.huoer_check)
    i.i2cRead                                0x08003374   Section        0  iic_1.o(i.i2cRead)
    i.i2cWrite                               0x080033ea   Section        0  iic_1.o(i.i2cWrite)
    i.main                                   0x0800344c   Section        0  main.o(i.main)
    i.mpu_read_fifo_stream                   0x080035a4   Section        0  inv_mpu.o(i.mpu_read_fifo_stream)
    i.mpu_reset_fifo                         0x08003664   Section        0  inv_mpu.o(i.mpu_reset_fifo)
    i.myget_ms                               0x08003820   Section        0  inv_mpu.o(i.myget_ms)
    i.pir_INIT                               0x08003824   Section        0  pir.o(i.pir_INIT)
    i.sqrt                                   0x08003850   Section        0  sqrt.o(i.sqrt)
    .constdata                               0x0800389c   Section     2072  oled.o(.constdata)
    .constdata                               0x080040b4   Section       80  inv_mpu.o(.constdata)
    .constdata                               0x08004108   Section       80  asin.o(.constdata)
    pS                                       0x08004108   Data          48  asin.o(.constdata)
    qS                                       0x08004138   Data          32  asin.o(.constdata)
    .constdata                               0x08004158   Section      152  atan.o(.constdata)
    atanhi                                   0x08004158   Data          32  atan.o(.constdata)
    atanlo                                   0x08004178   Data          32  atan.o(.constdata)
    aTodd                                    0x08004198   Data          40  atan.o(.constdata)
    aTeven                                   0x080041c0   Data          48  atan.o(.constdata)
    .constdata                               0x080041f0   Section        8  qnan.o(.constdata)
    .data                                    0x20000000   Section       16  main.o(.data)
    .data                                    0x20000010   Section       20  stm32f10x_rcc.o(.data)
    APBAHBPrescTable                         0x20000010   Data          16  stm32f10x_rcc.o(.data)
    ADCPrescTable                            0x20000020   Data           4  stm32f10x_rcc.o(.data)
    .data                                    0x20000024   Section       48  mpu6050.o(.data)
    gyro_orientation                         0x20000044   Data           9  mpu6050.o(.data)
    .data                                    0x20000054   Section       44  inv_mpu.o(.data)
    st                                       0x20000054   Data          44  inv_mpu.o(.data)
    .data                                    0x20000080   Section        4  uart1_1.o(.data)
    .data                                    0x20000084   Section        4  errno.o(.data)
    _errno                                   0x20000084   Data           4  errno.o(.data)
    .bss                                     0x20000088   Section       16  inv_mpu_dmp_motion_driver.o(.bss)
    dmp                                      0x20000088   Data          16  inv_mpu_dmp_motion_driver.o(.bss)
    .bss                                     0x20000098   Section      257  uart1_1.o(.bss)
    STACK                                    0x200001a0   Section     1024  startup_stm32f10x_hd.o(STACK)

    Global Symbols

    Symbol Name                              Value     Ov Type        Size  Object(Section)

    BuildAttributes$$THM_ISAv4$P$D$K$B$S$PE$A:L22UL41UL21$X:L11$S22US41US21$IEEE1$IW$USESV6$~STKCKD$USESV7$~SHL$OTIME$ROPI$IEEEX$EBA8$MICROLIB$REQ8$PRES8$EABIv2 0x00000000   Number         0  anon$$obj.o ABSOLUTE
    __ARM_use_no_argv                        0x00000000   Number         0  main.o ABSOLUTE
    __use_no_errno                           0x00000000   Number         0  useno.o ABSOLUTE
    __use_no_exception_handling              0x00000000   Number         0  useno.o ABSOLUTE
    __use_no_fp                              0x00000000   Number         0  useno.o ABSOLUTE
    __use_no_heap                            0x00000000   Number         0  useno.o ABSOLUTE
    __use_no_heap_region                     0x00000000   Number         0  useno.o ABSOLUTE
    __use_no_semihosting                     0x00000000   Number         0  useno.o ABSOLUTE
    __use_no_semihosting_swi                 0x00000000   Number         0  useno.o ABSOLUTE
    __use_no_signal_handling                 0x00000000   Number         0  useno.o ABSOLUTE
    _printf_a                                0x00000000   Number         0  stubs.o ABSOLUTE
    _printf_c                                0x00000000   Number         0  stubs.o ABSOLUTE
    _printf_charcount                        0x00000000   Number         0  stubs.o ABSOLUTE
    _printf_d                                0x00000000   Number         0  stubs.o ABSOLUTE
    _printf_e                                0x00000000   Number         0  stubs.o ABSOLUTE
    _printf_f                                0x00000000   Number         0  stubs.o ABSOLUTE
    _printf_flags                            0x00000000   Number         0  stubs.o ABSOLUTE
    _printf_fp_dec                           0x00000000   Number         0  stubs.o ABSOLUTE
    _printf_fp_hex                           0x00000000   Number         0  stubs.o ABSOLUTE
    _printf_g                                0x00000000   Number         0  stubs.o ABSOLUTE
    _printf_i                                0x00000000   Number         0  stubs.o ABSOLUTE
    _printf_int_dec                          0x00000000   Number         0  stubs.o ABSOLUTE
    _printf_l                                0x00000000   Number         0  stubs.o ABSOLUTE
    _printf_lc                               0x00000000   Number         0  stubs.o ABSOLUTE
    _printf_ll                               0x00000000   Number         0  stubs.o ABSOLUTE
    _printf_lld                              0x00000000   Number         0  stubs.o ABSOLUTE
    _printf_lli                              0x00000000   Number         0  stubs.o ABSOLUTE
    _printf_llo                              0x00000000   Number         0  stubs.o ABSOLUTE
    _printf_llu                              0x00000000   Number         0  stubs.o ABSOLUTE
    _printf_llx                              0x00000000   Number         0  stubs.o ABSOLUTE
    _printf_longlong_dec                     0x00000000   Number         0  stubs.o ABSOLUTE
    _printf_longlong_hex                     0x00000000   Number         0  stubs.o ABSOLUTE
    _printf_longlong_oct                     0x00000000   Number         0  stubs.o ABSOLUTE
    _printf_ls                               0x00000000   Number         0  stubs.o ABSOLUTE
    _printf_mbtowc                           0x00000000   Number         0  stubs.o ABSOLUTE
    _printf_n                                0x00000000   Number         0  stubs.o ABSOLUTE
    _printf_o                                0x00000000   Number         0  stubs.o ABSOLUTE
    _printf_p                                0x00000000   Number         0  stubs.o ABSOLUTE
    _printf_percent                          0x00000000   Number         0  stubs.o ABSOLUTE
    _printf_pre_padding                      0x00000000   Number         0  stubs.o ABSOLUTE
    _printf_return_value                     0x00000000   Number         0  stubs.o ABSOLUTE
    _printf_s                                0x00000000   Number         0  stubs.o ABSOLUTE
    _printf_sizespec                         0x00000000   Number         0  stubs.o ABSOLUTE
    _printf_str                              0x00000000   Number         0  stubs.o ABSOLUTE
    _printf_truncate_signed                  0x00000000   Number         0  stubs.o ABSOLUTE
    _printf_truncate_unsigned                0x00000000   Number         0  stubs.o ABSOLUTE
    _printf_u                                0x00000000   Number         0  stubs.o ABSOLUTE
    _printf_wc                               0x00000000   Number         0  stubs.o ABSOLUTE
    _printf_wctomb                           0x00000000   Number         0  stubs.o ABSOLUTE
    _printf_widthprec                        0x00000000   Number         0  stubs.o ABSOLUTE
    _printf_x                                0x00000000   Number         0  stubs.o ABSOLUTE
    __cpp_initialize__aeabi_                  - Undefined Weak Reference
    __cxa_finalize                            - Undefined Weak Reference
    __decompress                              - Undefined Weak Reference
    _clock_init                               - Undefined Weak Reference
    _microlib_exit                            - Undefined Weak Reference
    __Vectors_Size                           0x00000130   Number         0  startup_stm32f10x_hd.o ABSOLUTE
    __Vectors                                0x08000000   Data           4  startup_stm32f10x_hd.o(RESET)
    __Vectors_End                            0x08000130   Data           0  startup_stm32f10x_hd.o(RESET)
    __main                                   0x08000131   Thumb Code     0  entry.o(.ARM.Collect$$$$00000000)
    _main_stk                                0x08000131   Thumb Code     0  entry2.o(.ARM.Collect$$$$00000001)
    _main_scatterload                        0x08000135   Thumb Code     0  entry5.o(.ARM.Collect$$$$00000004)
    __main_after_scatterload                 0x08000139   Thumb Code     0  entry5.o(.ARM.Collect$$$$00000004)
    _main_clock                              0x08000139   Thumb Code     0  entry7b.o(.ARM.Collect$$$$00000008)
    _main_cpp_init                           0x08000139   Thumb Code     0  entry8b.o(.ARM.Collect$$$$0000000A)
    _main_init                               0x08000139   Thumb Code     0  entry9a.o(.ARM.Collect$$$$0000000B)
    __rt_final_cpp                           0x08000141   Thumb Code     0  entry10a.o(.ARM.Collect$$$$0000000D)
    __rt_final_exit                          0x08000141   Thumb Code     0  entry11a.o(.ARM.Collect$$$$0000000F)
    Reset_Handler                            0x08000145   Thumb Code     8  startup_stm32f10x_hd.o(.text)
    ADC1_2_IRQHandler                        0x0800015f   Thumb Code     0  startup_stm32f10x_hd.o(.text)
    ADC3_IRQHandler                          0x0800015f   Thumb Code     0  startup_stm32f10x_hd.o(.text)
    CAN1_RX1_IRQHandler                      0x0800015f   Thumb Code     0  startup_stm32f10x_hd.o(.text)
    CAN1_SCE_IRQHandler                      0x0800015f   Thumb Code     0  startup_stm32f10x_hd.o(.text)
    DMA1_Channel1_IRQHandler                 0x0800015f   Thumb Code     0  startup_stm32f10x_hd.o(.text)
    DMA1_Channel2_IRQHandler                 0x0800015f   Thumb Code     0  startup_stm32f10x_hd.o(.text)
    DMA1_Channel3_IRQHandler                 0x0800015f   Thumb Code     0  startup_stm32f10x_hd.o(.text)
    DMA1_Channel4_IRQHandler                 0x0800015f   Thumb Code     0  startup_stm32f10x_hd.o(.text)
    DMA1_Channel5_IRQHandler                 0x0800015f   Thumb Code     0  startup_stm32f10x_hd.o(.text)
    DMA1_Channel6_IRQHandler                 0x0800015f   Thumb Code     0  startup_stm32f10x_hd.o(.text)
    DMA1_Channel7_IRQHandler                 0x0800015f   Thumb Code     0  startup_stm32f10x_hd.o(.text)
    DMA2_Channel1_IRQHandler                 0x0800015f   Thumb Code     0  startup_stm32f10x_hd.o(.text)
    DMA2_Channel2_IRQHandler                 0x0800015f   Thumb Code     0  startup_stm32f10x_hd.o(.text)
    DMA2_Channel3_IRQHandler                 0x0800015f   Thumb Code     0  startup_stm32f10x_hd.o(.text)
    DMA2_Channel4_5_IRQHandler               0x0800015f   Thumb Code     0  startup_stm32f10x_hd.o(.text)
    EXTI0_IRQHandler                         0x0800015f   Thumb Code     0  startup_stm32f10x_hd.o(.text)
    EXTI15_10_IRQHandler                     0x0800015f   Thumb Code     0  startup_stm32f10x_hd.o(.text)
    EXTI1_IRQHandler                         0x0800015f   Thumb Code     0  startup_stm32f10x_hd.o(.text)
    EXTI2_IRQHandler                         0x0800015f   Thumb Code     0  startup_stm32f10x_hd.o(.text)
    EXTI3_IRQHandler                         0x0800015f   Thumb Code     0  startup_stm32f10x_hd.o(.text)
    EXTI4_IRQHandler                         0x0800015f   Thumb Code     0  startup_stm32f10x_hd.o(.text)
    EXTI9_5_IRQHandler                       0x0800015f   Thumb Code     0  startup_stm32f10x_hd.o(.text)
    FLASH_IRQHandler                         0x0800015f   Thumb Code     0  startup_stm32f10x_hd.o(.text)
    FSMC_IRQHandler                          0x0800015f   Thumb Code     0  startup_stm32f10x_hd.o(.text)
    I2C1_ER_IRQHandler                       0x0800015f   Thumb Code     0  startup_stm32f10x_hd.o(.text)
    I2C1_EV_IRQHandler                       0x0800015f   Thumb Code     0  startup_stm32f10x_hd.o(.text)
    I2C2_ER_IRQHandler                       0x0800015f   Thumb Code     0  startup_stm32f10x_hd.o(.text)
    I2C2_EV_IRQHandler                       0x0800015f   Thumb Code     0  startup_stm32f10x_hd.o(.text)
    PVD_IRQHandler                           0x0800015f   Thumb Code     0  startup_stm32f10x_hd.o(.text)
    RCC_IRQHandler                           0x0800015f   Thumb Code     0  startup_stm32f10x_hd.o(.text)
    RTCAlarm_IRQHandler                      0x0800015f   Thumb Code     0  startup_stm32f10x_hd.o(.text)
    RTC_IRQHandler                           0x0800015f   Thumb Code     0  startup_stm32f10x_hd.o(.text)
    SDIO_IRQHandler                          0x0800015f   Thumb Code     0  startup_stm32f10x_hd.o(.text)
    SPI1_IRQHandler                          0x0800015f   Thumb Code     0  startup_stm32f10x_hd.o(.text)
    SPI2_IRQHandler                          0x0800015f   Thumb Code     0  startup_stm32f10x_hd.o(.text)
    SPI3_IRQHandler                          0x0800015f   Thumb Code     0  startup_stm32f10x_hd.o(.text)
    TAMPER_IRQHandler                        0x0800015f   Thumb Code     0  startup_stm32f10x_hd.o(.text)
    TIM1_BRK_IRQHandler                      0x0800015f   Thumb Code     0  startup_stm32f10x_hd.o(.text)
    TIM1_CC_IRQHandler                       0x0800015f   Thumb Code     0  startup_stm32f10x_hd.o(.text)
    TIM1_TRG_COM_IRQHandler                  0x0800015f   Thumb Code     0  startup_stm32f10x_hd.o(.text)
    TIM1_UP_IRQHandler                       0x0800015f   Thumb Code     0  startup_stm32f10x_hd.o(.text)
    TIM3_IRQHandler                          0x0800015f   Thumb Code     0  startup_stm32f10x_hd.o(.text)
    TIM4_IRQHandler                          0x0800015f   Thumb Code     0  startup_stm32f10x_hd.o(.text)
    TIM5_IRQHandler                          0x0800015f   Thumb Code     0  startup_stm32f10x_hd.o(.text)
    TIM6_IRQHandler                          0x0800015f   Thumb Code     0  startup_stm32f10x_hd.o(.text)
    TIM7_IRQHandler                          0x0800015f   Thumb Code     0  startup_stm32f10x_hd.o(.text)
    TIM8_BRK_IRQHandler                      0x0800015f   Thumb Code     0  startup_stm32f10x_hd.o(.text)
    TIM8_CC_IRQHandler                       0x0800015f   Thumb Code     0  startup_stm32f10x_hd.o(.text)
    TIM8_TRG_COM_IRQHandler                  0x0800015f   Thumb Code     0  startup_stm32f10x_hd.o(.text)
    TIM8_UP_IRQHandler                       0x0800015f   Thumb Code     0  startup_stm32f10x_hd.o(.text)
    UART4_IRQHandler                         0x0800015f   Thumb Code     0  startup_stm32f10x_hd.o(.text)
    UART5_IRQHandler                         0x0800015f   Thumb Code     0  startup_stm32f10x_hd.o(.text)
    USART2_IRQHandler                        0x0800015f   Thumb Code     0  startup_stm32f10x_hd.o(.text)
    USART3_IRQHandler                        0x0800015f   Thumb Code     0  startup_stm32f10x_hd.o(.text)
    USBWakeUp_IRQHandler                     0x0800015f   Thumb Code     0  startup_stm32f10x_hd.o(.text)
    USB_HP_CAN1_TX_IRQHandler                0x0800015f   Thumb Code     0  startup_stm32f10x_hd.o(.text)
    USB_LP_CAN1_RX0_IRQHandler               0x0800015f   Thumb Code     0  startup_stm32f10x_hd.o(.text)
    WWDG_IRQHandler                          0x0800015f   Thumb Code     0  startup_stm32f10x_hd.o(.text)
    __aeabi_memset                           0x08000169   Thumb Code    14  memseta.o(.text)
    __aeabi_memset4                          0x08000169   Thumb Code     0  memseta.o(.text)
    __aeabi_memset8                          0x08000169   Thumb Code     0  memseta.o(.text)
    __aeabi_memclr                           0x08000177   Thumb Code     4  memseta.o(.text)
    __aeabi_memclr4                          0x08000177   Thumb Code     0  memseta.o(.text)
    __aeabi_memclr8                          0x08000177   Thumb Code     0  memseta.o(.text)
    _memset$wrapper                          0x0800017b   Thumb Code    18  memseta.o(.text)
    __aeabi_fadd                             0x0800018d   Thumb Code   164  fadd.o(.text)
    __aeabi_fsub                             0x08000231   Thumb Code     6  fadd.o(.text)
    __aeabi_frsub                            0x08000237   Thumb Code     6  fadd.o(.text)
    __aeabi_fmul                             0x0800023d   Thumb Code   100  fmul.o(.text)
    __aeabi_fdiv                             0x080002a1   Thumb Code   124  fdiv.o(.text)
    __aeabi_dadd                             0x0800031d   Thumb Code   322  dadd.o(.text)
    __aeabi_dsub                             0x0800045f   Thumb Code     6  dadd.o(.text)
    __aeabi_drsub                            0x08000465   Thumb Code     6  dadd.o(.text)
    __aeabi_dmul                             0x0800046b   Thumb Code   228  dmul.o(.text)
    __aeabi_ddiv                             0x0800054f   Thumb Code   222  ddiv.o(.text)
    __aeabi_i2f                              0x0800062d   Thumb Code    18  fflti.o(.text)
    __aeabi_i2d                              0x0800063f   Thumb Code    34  dflti.o(.text)
    __aeabi_f2d                              0x08000661   Thumb Code    38  f2d.o(.text)
    __aeabi_d2f                              0x08000687   Thumb Code    56  d2f.o(.text)
    __aeabi_uidiv                            0x080006bf   Thumb Code     0  uidiv.o(.text)
    __aeabi_uidivmod                         0x080006bf   Thumb Code    44  uidiv.o(.text)
    __aeabi_uldivmod                         0x080006eb   Thumb Code    98  uldiv.o(.text)
    __aeabi_llsl                             0x0800074d   Thumb Code    30  llshl.o(.text)
    _ll_shift_l                              0x0800074d   Thumb Code     0  llshl.o(.text)
    __aeabi_lasr                             0x0800076b   Thumb Code    36  llsshr.o(.text)
    _ll_sshift_r                             0x0800076b   Thumb Code     0  llsshr.o(.text)
    __I$use$fp                               0x0800078f   Thumb Code     0  iusefp.o(.text)
    _float_round                             0x0800078f   Thumb Code    18  fepilogue.o(.text)
    _float_epilogue                          0x080007a1   Thumb Code    92  fepilogue.o(.text)
    _double_round                            0x080007fd   Thumb Code    30  depilogue.o(.text)
    _double_epilogue                         0x0800081b   Thumb Code   156  depilogue.o(.text)
    __ARM_scalbn                             0x080008b7   Thumb Code    46  dscalb.o(.text)
    scalbn                                   0x080008b7   Thumb Code     0  dscalb.o(.text)
    __aeabi_d2ulz                            0x080008e5   Thumb Code    48  dfixul.o(.text)
    __aeabi_cdrcmple                         0x08000915   Thumb Code    48  cdrcmple.o(.text)
    __scatterload                            0x08000945   Thumb Code    28  init.o(.text)
    __scatterload_rt2                        0x08000945   Thumb Code     0  init.o(.text)
    __aeabi_llsr                             0x08000969   Thumb Code    32  llushr.o(.text)
    _ll_ushift_r                             0x08000969   Thumb Code     0  llushr.o(.text)
    _dsqrt                                   0x08000989   Thumb Code   162  dsqrt.o(.text)
    ADC1_Init                                0x08000a2d   Thumb Code   100  adc1.o(i.ADC1_Init)
    ADC_Cmd                                  0x08000a99   Thumb Code    22  stm32f10x_adc.o(i.ADC_Cmd)
    ADC_GetConversionValue                   0x08000aaf   Thumb Code     8  stm32f10x_adc.o(i.ADC_GetConversionValue)
    ADC_GetFlagStatus                        0x08000ab7   Thumb Code    18  stm32f10x_adc.o(i.ADC_GetFlagStatus)
    ADC_ITConfig                             0x08000ac9   Thumb Code    24  stm32f10x_adc.o(i.ADC_ITConfig)
    ADC_Init                                 0x08000ae1   Thumb Code    70  stm32f10x_adc.o(i.ADC_Init)
    ADC_RegularChannelConfig                 0x08000b31   Thumb Code   184  stm32f10x_adc.o(i.ADC_RegularChannelConfig)
    ADC_SoftwareStartConvCmd                 0x08000be9   Thumb Code    22  stm32f10x_adc.o(i.ADC_SoftwareStartConvCmd)
    ADC_Trans                                0x08000c01   Thumb Code    60  adc1.o(i.ADC_Trans)
    BH_Init                                  0x08000c41   Thumb Code    22  bh_gy30.o(i.BH_Init)
    BH_Read                                  0x08000c57   Thumb Code    52  bh_gy30.o(i.BH_Read)
    BH_Write                                 0x08000c8b   Thumb Code    40  bh_gy30.o(i.BH_Write)
    BusFault_Handler                         0x08000cb3   Thumb Code     4  stm32f10x_it_1.o(i.BusFault_Handler)
    DHT11_Check                              0x08000cb9   Thumb Code    92  dht11.o(i.DHT11_Check)
    DHT11_Init                               0x08000d1d   Thumb Code    58  dht11.o(i.DHT11_Init)
    DHT11_Read_Bit                           0x08000d5d   Thumb Code    70  dht11.o(i.DHT11_Read_Bit)
    DHT11_Read_Byte                          0x08000da9   Thumb Code    30  dht11.o(i.DHT11_Read_Byte)
    DHT11_Read_Data                          0x08000dc7   Thumb Code    88  dht11.o(i.DHT11_Read_Data)
    DHT11_Rst                                0x08000e21   Thumb Code    52  dht11.o(i.DHT11_Rst)
    DebugMon_Handler                         0x08000e61   Thumb Code     2  stm32f10x_it_1.o(i.DebugMon_Handler)
    GPIO_Init                                0x08000e63   Thumb Code   278  stm32f10x_gpio.o(i.GPIO_Init)
    GPIO_ReadInputDataBit                    0x08000f79   Thumb Code    18  stm32f10x_gpio.o(i.GPIO_ReadInputDataBit)
    GPIO_SetBits                             0x08000f8b   Thumb Code     4  stm32f10x_gpio.o(i.GPIO_SetBits)
    HW_check                                 0x08000f91   Thumb Code    20  pir.o(i.HW_check)
    HardFault_Handler                        0x08000fa9   Thumb Code     4  stm32f10x_it_1.o(i.HardFault_Handler)
    IIC_Ack                                  0x08000fad   Thumb Code    62  iic_1.o(i.IIC_Ack)
    IIC_Delay                                0x08000ff9   Thumb Code    10  iic_1.o(i.IIC_Delay)
    IIC_NAck                                 0x08001005   Thumb Code    62  iic_1.o(i.IIC_NAck)
    IIC_Read_Byte                            0x08001051   Thumb Code    94  iic_1.o(i.IIC_Read_Byte)
    IIC_Send_Byte                            0x080010bd   Thumb Code    98  iic_1.o(i.IIC_Send_Byte)
    IIC_Start                                0x0800112d   Thumb Code    90  iic_1.o(i.IIC_Start)
    IIC_Stop                                 0x08001195   Thumb Code    58  iic_1.o(i.IIC_Stop)
    IIC_Wait_Ack                             0x080011dd   Thumb Code    90  iic_1.o(i.IIC_Wait_Ack)
    LS_INIT                                  0x08001245   Thumb Code    38  ls.o(i.LS_INIT)
    LS_check                                 0x08001271   Thumb Code    20  ls.o(i.LS_check)
    MY_IIC_Ack                               0x08001289   Thumb Code    48  myiic_1.o(i.MY_IIC_Ack)
    MY_IIC_Init                              0x080012c1   Thumb Code    46  myiic_1.o(i.MY_IIC_Init)
    MY_IIC_NAck                              0x080012f5   Thumb Code    48  myiic_1.o(i.MY_IIC_NAck)
    MY_IIC_Read_Byte                         0x0800132d   Thumb Code    80  myiic_1.o(i.MY_IIC_Read_Byte)
    MY_IIC_Send_Byte                         0x08001385   Thumb Code    72  myiic_1.o(i.MY_IIC_Send_Byte)
    MY_IIC_Start                             0x080013d5   Thumb Code    46  myiic_1.o(i.MY_IIC_Start)
    MY_IIC_Stop                              0x0800140d   Thumb Code    44  myiic_1.o(i.MY_IIC_Stop)
    MY_IIC_Wait_Ack                          0x08001441   Thumb Code    68  myiic_1.o(i.MY_IIC_Wait_Ack)
    MY_SDA_IN                                0x0800148d   Thumb Code    30  myiic_1.o(i.MY_SDA_IN)
    MY_SDA_OUT                               0x080014b1   Thumb Code    30  myiic_1.o(i.MY_SDA_OUT)
    MY_iicDevWriteByte                       0x080014d5   Thumb Code    48  myiic_1.o(i.MY_iicDevWriteByte)
    MemManage_Handler                        0x08001505   Thumb Code     4  stm32f10x_it_1.o(i.MemManage_Handler)
    NMI_Handler                              0x08001509   Thumb Code     2  stm32f10x_it_1.o(i.NMI_Handler)
    NVIC_Init                                0x0800150d   Thumb Code   100  misc.o(i.NVIC_Init)
    OLED_Clear                               0x0800157d   Thumb Code    62  oled.o(i.OLED_Clear)
    OLED_Init                                0x080015bb   Thumb Code   220  oled.o(i.OLED_Init)
    OLED_Set_Pos                             0x08001697   Thumb Code    40  oled.o(i.OLED_Set_Pos)
    OLED_ShowChar                            0x080016c1   Thumb Code   154  oled.o(i.OLED_ShowChar)
    OLED_ShowString                          0x08001765   Thumb Code    58  oled.o(i.OLED_ShowString)
    OLED_WR_Byte                             0x0800179f   Thumb Code    32  oled.o(i.OLED_WR_Byte)
    PendSV_Handler                           0x080017bf   Thumb Code     2  stm32f10x_it_1.o(i.PendSV_Handler)
    RCC_APB2PeriphClockCmd                   0x080017c1   Thumb Code    26  stm32f10x_rcc.o(i.RCC_APB2PeriphClockCmd)
    RCC_GetClocksFreq                        0x080017e1   Thumb Code   192  stm32f10x_rcc.o(i.RCC_GetClocksFreq)
    Read_DMP                                 0x080018b5   Thumb Code   570  mpu6050.o(i.Read_DMP)
    SVC_Handler                              0x08001b11   Thumb Code     2  stm32f10x_it_1.o(i.SVC_Handler)
    Show_OLED_BH                             0x08001bfd   Thumb Code   106  main.o(i.Show_OLED_BH)
    SysTick_Handler                          0x08001cc1   Thumb Code     2  stm32f10x_it_1.o(i.SysTick_Handler)
    SystemInit                               0x08001cc5   Thumb Code    78  system_stm32f10x_1.o(i.SystemInit)
    TIM2_IRQHandler                          0x08001d25   Thumb Code    96  time_1.o(i.TIM2_IRQHandler)
    TIM_ClearITPendingBit                    0x08001db1   Thumb Code     6  stm32f10x_tim.o(i.TIM_ClearITPendingBit)
    TIM_GetITStatus                          0x08001db7   Thumb Code    34  stm32f10x_tim.o(i.TIM_GetITStatus)
    USART1_IRQHandler                        0x08001dd9   Thumb Code    26  uart1_1.o(i.USART1_IRQHandler)
    USART_Cmd                                0x08001df9   Thumb Code    24  stm32f10x_usart.o(i.USART_Cmd)
    USART_GetITStatus                        0x08001e11   Thumb Code    84  stm32f10x_usart.o(i.USART_GetITStatus)
    USART_ITConfig                           0x08001e65   Thumb Code    74  stm32f10x_usart.o(i.USART_ITConfig)
    USART_Init                               0x08001eb1   Thumb Code   210  stm32f10x_usart.o(i.USART_Init)
    USART_ReceiveData                        0x08001f89   Thumb Code    10  stm32f10x_usart.o(i.USART_ReceiveData)
    Uart1_Init                               0x08001f95   Thumb Code   156  uart1_1.o(i.Uart1_Init)
    Uart1_Rx_Clean                           0x08002039   Thumb Code    14  uart1_1.o(i.Uart1_Rx_Clean)
    UsageFault_Handler                       0x0800204d   Thumb Code     4  stm32f10x_it_1.o(i.UsageFault_Handler)
    __0printf                                0x08002051   Thumb Code    22  printfa.o(i.__0printf)
    __1printf                                0x08002051   Thumb Code     0  printfa.o(i.__0printf)
    __2printf                                0x08002051   Thumb Code     0  printfa.o(i.__0printf)
    __c89printf                              0x08002051   Thumb Code     0  printfa.o(i.__0printf)
    printf                                   0x08002051   Thumb Code     0  printfa.o(i.__0printf)
    __0sprintf                               0x08002071   Thumb Code    34  printfa.o(i.__0sprintf)
    __1sprintf                               0x08002071   Thumb Code     0  printfa.o(i.__0sprintf)
    __2sprintf                               0x08002071   Thumb Code     0  printfa.o(i.__0sprintf)
    __c89sprintf                             0x08002071   Thumb Code     0  printfa.o(i.__0sprintf)
    sprintf                                  0x08002071   Thumb Code     0  printfa.o(i.__0sprintf)
    __ARM_fpclassify                         0x08002099   Thumb Code    40  fpclassify.o(i.__ARM_fpclassify)
    __kernel_poly                            0x080020c1   Thumb Code   170  poly.o(i.__kernel_poly)
    __mathlib_dbl_infnan                     0x0800216b   Thumb Code     6  dunder.o(i.__mathlib_dbl_infnan)
    __mathlib_dbl_infnan2                    0x08002171   Thumb Code     4  dunder.o(i.__mathlib_dbl_infnan2)
    __mathlib_dbl_invalid                    0x08002175   Thumb Code    12  dunder.o(i.__mathlib_dbl_invalid)
    __mathlib_dbl_underflow                  0x08002181   Thumb Code    10  dunder.o(i.__mathlib_dbl_underflow)
    __scatterload_copy                       0x08002191   Thumb Code    14  handlers.o(i.__scatterload_copy)
    __scatterload_null                       0x0800219f   Thumb Code     2  handlers.o(i.__scatterload_null)
    __scatterload_zeroinit                   0x080021a1   Thumb Code    14  handlers.o(i.__scatterload_zeroinit)
    __set_errno                              0x080021b1   Thumb Code     6  errno.o(i.__set_errno)
    asin                                     0x08002a59   Thumb Code   572  asin.o(i.asin)
    atan                                     0x08002cc9   Thumb Code   474  atan.o(i.atan)
    atan2                                    0x08002ee9   Thumb Code   346  atan2.o(i.atan2)
    delay_ms                                 0x080030cd   Thumb Code    26  delay.o(i.delay_ms)
    delay_us                                 0x080030e7   Thumb Code    46  delay.o(i.delay_us)
    dmp_read_fifo                            0x08003115   Thumb Code   456  inv_mpu_dmp_motion_driver.o(i.dmp_read_fifo)
    fputc                                    0x080032e1   Thumb Code    24  uart1_1.o(i.fputc)
    huoer_INIT                               0x080032fd   Thumb Code    38  huoer.o(i.huoer_INIT)
    huoer_check                              0x08003329   Thumb Code    40  huoer.o(i.huoer_check)
    i2cRead                                  0x08003375   Thumb Code   118  iic_1.o(i.i2cRead)
    i2cWrite                                 0x080033eb   Thumb Code    96  iic_1.o(i.i2cWrite)
    main                                     0x0800344d   Thumb Code   198  main.o(i.main)
    mpu_read_fifo_stream                     0x080035a5   Thumb Code   186  inv_mpu.o(i.mpu_read_fifo_stream)
    mpu_reset_fifo                           0x08003665   Thumb Code   438  inv_mpu.o(i.mpu_reset_fifo)
    myget_ms                                 0x08003821   Thumb Code     2  inv_mpu.o(i.myget_ms)
    pir_INIT                                 0x08003825   Thumb Code    38  pir.o(i.pir_INIT)
    sqrt                                     0x08003851   Thumb Code    76  sqrt.o(i.sqrt)
    F6x8                                     0x0800389c   Data         552  oled.o(.constdata)
    F8X16                                    0x08003ac4   Data        1520  oled.o(.constdata)
    hw                                       0x080040b4   Data          12  inv_mpu.o(.constdata)
    reg                                      0x080040c0   Data          27  inv_mpu.o(.constdata)
    test                                     0x080040dc   Data          40  inv_mpu.o(.constdata)
    __mathlib_zero                           0x080041f0   Data           8  qnan.o(.constdata)
    Region$$Table$$Base                      0x080041f8   Number         0  anon$$obj.o(Region$$Table)
    Region$$Table$$Limit                     0x08004218   Number         0  anon$$obj.o(Region$$Table)
    temp                                     0x20000000   Data           1  main.o(.data)
    humi                                     0x20000001   Data           1  main.o(.data)
    Pitch                                    0x20000004   Data           4  main.o(.data)
    Roll                                     0x20000008   Data           4  main.o(.data)
    Yaw                                      0x2000000c   Data           4  main.o(.data)
    gyro                                     0x20000024   Data           6  mpu6050.o(.data)
    accel                                    0x2000002a   Data           6  mpu6050.o(.data)
    sensors                                  0x20000030   Data           2  mpu6050.o(.data)
    q0                                       0x20000034   Data           4  mpu6050.o(.data)
    q1                                       0x20000038   Data           4  mpu6050.o(.data)
    q2                                       0x2000003c   Data           4  mpu6050.o(.data)
    q3                                       0x20000040   Data           4  mpu6050.o(.data)
    Gx_offset                                0x2000004e   Data           2  mpu6050.o(.data)
    Gy_offset                                0x20000050   Data           2  mpu6050.o(.data)
    Gz_offset                                0x20000052   Data           2  mpu6050.o(.data)
    __stdout                                 0x20000080   Data           4  uart1_1.o(.data)
    uart1_recv                               0x20000098   Data         257  uart1_1.o(.bss)
    __initial_sp                             0x200005a0   Data           0  startup_stm32f10x_hd.o(STACK)



==============================================================================

Memory Map of the image

  Image Entry point : 0x08000145

  Load Region LR_1 (Base: 0x08000000, Size: 0x000042a0, Max: 0xffffffff, ABSOLUTE)

    Execution Region ER_RO (Base: 0x08000000, Size: 0x00004218, Max: 0xffffffff, ABSOLUTE)

    Base Addr    Size         Type   Attr      Idx    E Section Name        Object

    0x08000000   0x00000130   Data   RO          336    RESET               startup_stm32f10x_hd.o
    0x08000130   0x00000000   Code   RO         4425  * .ARM.Collect$$$$00000000  mc_w.l(entry.o)
    0x08000130   0x00000004   Code   RO         4762    .ARM.Collect$$$$00000001  mc_w.l(entry2.o)
    0x08000134   0x00000004   Code   RO         4765    .ARM.Collect$$$$00000004  mc_w.l(entry5.o)
    0x08000138   0x00000000   Code   RO         4767    .ARM.Collect$$$$00000008  mc_w.l(entry7b.o)
    0x08000138   0x00000000   Code   RO         4769    .ARM.Collect$$$$0000000A  mc_w.l(entry8b.o)
    0x08000138   0x00000008   Code   RO         4770    .ARM.Collect$$$$0000000B  mc_w.l(entry9a.o)
    0x08000140   0x00000000   Code   RO         4772    .ARM.Collect$$$$0000000D  mc_w.l(entry10a.o)
    0x08000140   0x00000000   Code   RO         4774    .ARM.Collect$$$$0000000F  mc_w.l(entry11a.o)
    0x08000140   0x00000004   Code   RO         4763    .ARM.Collect$$$$00002712  mc_w.l(entry2.o)
    0x08000144   0x00000024   Code   RO          337  * .text               startup_stm32f10x_hd.o
    0x08000168   0x00000024   Code   RO         4430    .text               mc_w.l(memseta.o)
    0x0800018c   0x000000b0   Code   RO         4695    .text               mf_w.l(fadd.o)
    0x0800023c   0x00000064   Code   RO         4697    .text               mf_w.l(fmul.o)
    0x080002a0   0x0000007c   Code   RO         4699    .text               mf_w.l(fdiv.o)
    0x0800031c   0x0000014e   Code   RO         4701    .text               mf_w.l(dadd.o)
    0x0800046a   0x000000e4   Code   RO         4703    .text               mf_w.l(dmul.o)
    0x0800054e   0x000000de   Code   RO         4705    .text               mf_w.l(ddiv.o)
    0x0800062c   0x00000012   Code   RO         4707    .text               mf_w.l(fflti.o)
    0x0800063e   0x00000022   Code   RO         4711    .text               mf_w.l(dflti.o)
    0x08000660   0x00000026   Code   RO         4717    .text               mf_w.l(f2d.o)
    0x08000686   0x00000038   Code   RO         4719    .text               mf_w.l(d2f.o)
    0x080006be   0x0000002c   Code   RO         4776    .text               mc_w.l(uidiv.o)
    0x080006ea   0x00000062   Code   RO         4778    .text               mc_w.l(uldiv.o)
    0x0800074c   0x0000001e   Code   RO         4780    .text               mc_w.l(llshl.o)
    0x0800076a   0x00000024   Code   RO         4782    .text               mc_w.l(llsshr.o)
    0x0800078e   0x00000000   Code   RO         4791    .text               mc_w.l(iusefp.o)
    0x0800078e   0x0000006e   Code   RO         4792    .text               mf_w.l(fepilogue.o)
    0x080007fc   0x000000ba   Code   RO         4794    .text               mf_w.l(depilogue.o)
    0x080008b6   0x0000002e   Code   RO         4796    .text               mf_w.l(dscalb.o)
    0x080008e4   0x00000030   Code   RO         4798    .text               mf_w.l(dfixul.o)
    0x08000914   0x00000030   Code   RO         4800    .text               mf_w.l(cdrcmple.o)
    0x08000944   0x00000024   Code   RO         4802    .text               mc_w.l(init.o)
    0x08000968   0x00000020   Code   RO         4804    .text               mc_w.l(llushr.o)
    0x08000988   0x000000a2   Code   RO         4806    .text               mf_w.l(dsqrt.o)
    0x08000a2a   0x00000002   PAD
    0x08000a2c   0x0000006c   Code   RO         3449    i.ADC1_Init         adc1.o
    0x08000a98   0x00000016   Code   RO          383    i.ADC_Cmd           stm32f10x_adc.o
    0x08000aae   0x00000008   Code   RO          392    i.ADC_GetConversionValue  stm32f10x_adc.o
    0x08000ab6   0x00000012   Code   RO          394    i.ADC_GetFlagStatus  stm32f10x_adc.o
    0x08000ac8   0x00000018   Code   RO          400    i.ADC_ITConfig      stm32f10x_adc.o
    0x08000ae0   0x00000050   Code   RO          401    i.ADC_Init          stm32f10x_adc.o
    0x08000b30   0x000000b8   Code   RO          405    i.ADC_RegularChannelConfig  stm32f10x_adc.o
    0x08000be8   0x00000016   Code   RO          408    i.ADC_SoftwareStartConvCmd  stm32f10x_adc.o
    0x08000bfe   0x00000002   PAD
    0x08000c00   0x00000040   Code   RO         3450    i.ADC_Trans         adc1.o
    0x08000c40   0x00000016   Code   RO         3308    i.BH_Init           bh_gy30.o
    0x08000c56   0x00000034   Code   RO         3309    i.BH_Read           bh_gy30.o
    0x08000c8a   0x00000028   Code   RO         3310    i.BH_Write          bh_gy30.o
    0x08000cb2   0x00000004   Code   RO          227    i.BusFault_Handler  stm32f10x_it_1.o
    0x08000cb6   0x00000002   PAD
    0x08000cb8   0x00000064   Code   RO         3407    i.DHT11_Check       dht11.o
    0x08000d1c   0x00000040   Code   RO         3408    i.DHT11_Init        dht11.o
    0x08000d5c   0x0000004c   Code   RO         3409    i.DHT11_Read_Bit    dht11.o
    0x08000da8   0x0000001e   Code   RO         3410    i.DHT11_Read_Byte   dht11.o
    0x08000dc6   0x00000058   Code   RO         3411    i.DHT11_Read_Data   dht11.o
    0x08000e1e   0x00000002   PAD
    0x08000e20   0x00000040   Code   RO         3412    i.DHT11_Rst         dht11.o
    0x08000e60   0x00000002   Code   RO          228    i.DebugMon_Handler  stm32f10x_it_1.o
    0x08000e62   0x00000116   Code   RO         1492    i.GPIO_Init         stm32f10x_gpio.o
    0x08000f78   0x00000012   Code   RO         1496    i.GPIO_ReadInputDataBit  stm32f10x_gpio.o
    0x08000f8a   0x00000004   Code   RO         1500    i.GPIO_SetBits      stm32f10x_gpio.o
    0x08000f8e   0x00000002   PAD
    0x08000f90   0x00000018   Code   RO         3467    i.HW_check          pir.o
    0x08000fa8   0x00000004   Code   RO          229    i.HardFault_Handler  stm32f10x_it_1.o
    0x08000fac   0x0000004c   Code   RO         4128    i.IIC_Ack           iic_1.o
    0x08000ff8   0x0000000a   Code   RO         4129    i.IIC_Delay         iic_1.o
    0x08001002   0x00000002   PAD
    0x08001004   0x0000004c   Code   RO         4131    i.IIC_NAck          iic_1.o
    0x08001050   0x0000006c   Code   RO         4132    i.IIC_Read_Byte     iic_1.o
    0x080010bc   0x00000070   Code   RO         4133    i.IIC_Send_Byte     iic_1.o
    0x0800112c   0x00000068   Code   RO         4134    i.IIC_Start         iic_1.o
    0x08001194   0x00000048   Code   RO         4135    i.IIC_Stop          iic_1.o
    0x080011dc   0x00000068   Code   RO         4136    i.IIC_Wait_Ack      iic_1.o
    0x08001244   0x0000002c   Code   RO         3485    i.LS_INIT           ls.o
    0x08001270   0x00000018   Code   RO         3486    i.LS_check          ls.o
    0x08001288   0x00000038   Code   RO         4241    i.MY_IIC_Ack        myiic_1.o
    0x080012c0   0x00000034   Code   RO         4242    i.MY_IIC_Init       myiic_1.o
    0x080012f4   0x00000038   Code   RO         4243    i.MY_IIC_NAck       myiic_1.o
    0x0800132c   0x00000058   Code   RO         4244    i.MY_IIC_Read_Byte  myiic_1.o
    0x08001384   0x00000050   Code   RO         4245    i.MY_IIC_Send_Byte  myiic_1.o
    0x080013d4   0x00000038   Code   RO         4246    i.MY_IIC_Start      myiic_1.o
    0x0800140c   0x00000034   Code   RO         4247    i.MY_IIC_Stop       myiic_1.o
    0x08001440   0x0000004c   Code   RO         4248    i.MY_IIC_Wait_Ack   myiic_1.o
    0x0800148c   0x00000024   Code   RO         4249    i.MY_SDA_IN         myiic_1.o
    0x080014b0   0x00000024   Code   RO         4250    i.MY_SDA_OUT        myiic_1.o
    0x080014d4   0x00000030   Code   RO         4254    i.MY_iicDevWriteByte  myiic_1.o
    0x08001504   0x00000004   Code   RO          230    i.MemManage_Handler  stm32f10x_it_1.o
    0x08001508   0x00000002   Code   RO          231    i.NMI_Handler       stm32f10x_it_1.o
    0x0800150a   0x00000002   PAD
    0x0800150c   0x00000070   Code   RO          341    i.NVIC_Init         misc.o
    0x0800157c   0x0000003e   Code   RO         3333    i.OLED_Clear        oled.o
    0x080015ba   0x000000dc   Code   RO         3336    i.OLED_Init         oled.o
    0x08001696   0x00000028   Code   RO         3338    i.OLED_Set_Pos      oled.o
    0x080016be   0x00000002   PAD
    0x080016c0   0x000000a4   Code   RO         3339    i.OLED_ShowChar     oled.o
    0x08001764   0x0000003a   Code   RO         3340    i.OLED_ShowString   oled.o
    0x0800179e   0x00000020   Code   RO         3341    i.OLED_WR_Byte      oled.o
    0x080017be   0x00000002   Code   RO          232    i.PendSV_Handler    stm32f10x_it_1.o
    0x080017c0   0x00000020   Code   RO         1910    i.RCC_APB2PeriphClockCmd  stm32f10x_rcc.o
    0x080017e0   0x000000d4   Code   RO         1918    i.RCC_GetClocksFreq  stm32f10x_rcc.o
    0x080018b4   0x0000025c   Code   RO         3515    i.Read_DMP          mpu6050.o
    0x08001b10   0x00000002   Code   RO          233    i.SVC_Handler       stm32f10x_it_1.o
    0x08001b12   0x00000008   Code   RO          290    i.SetSysClock       system_stm32f10x_1.o
    0x08001b1a   0x00000002   PAD
    0x08001b1c   0x000000e0   Code   RO          291    i.SetSysClockTo72   system_stm32f10x_1.o
    0x08001bfc   0x000000c4   Code   RO            1    i.Show_OLED_BH      main.o
    0x08001cc0   0x00000002   Code   RO          234    i.SysTick_Handler   stm32f10x_it_1.o
    0x08001cc2   0x00000002   PAD
    0x08001cc4   0x00000060   Code   RO          293    i.SystemInit        system_stm32f10x_1.o
    0x08001d24   0x0000008c   Code   RO         4332    i.TIM2_IRQHandler   time_1.o
    0x08001db0   0x00000006   Code   RO         2537    i.TIM_ClearITPendingBit  stm32f10x_tim.o
    0x08001db6   0x00000022   Code   RO         2563    i.TIM_GetITStatus   stm32f10x_tim.o
    0x08001dd8   0x00000020   Code   RO         4360    i.USART1_IRQHandler  uart1_1.o
    0x08001df8   0x00000018   Code   RO         3078    i.USART_Cmd         stm32f10x_usart.o
    0x08001e10   0x00000054   Code   RO         3082    i.USART_GetITStatus  stm32f10x_usart.o
    0x08001e64   0x0000004a   Code   RO         3084    i.USART_ITConfig    stm32f10x_usart.o
    0x08001eae   0x00000002   PAD
    0x08001eb0   0x000000d8   Code   RO         3085    i.USART_Init        stm32f10x_usart.o
    0x08001f88   0x0000000a   Code   RO         3092    i.USART_ReceiveData  stm32f10x_usart.o
    0x08001f92   0x00000002   PAD
    0x08001f94   0x000000a4   Code   RO         4361    i.Uart1_Init        uart1_1.o
    0x08002038   0x00000014   Code   RO         4362    i.Uart1_Rx_Clean    uart1_1.o
    0x0800204c   0x00000004   Code   RO          235    i.UsageFault_Handler  stm32f10x_it_1.o
    0x08002050   0x00000020   Code   RO         4667    i.__0printf         mc_w.l(printfa.o)
    0x08002070   0x00000028   Code   RO         4669    i.__0sprintf        mc_w.l(printfa.o)
    0x08002098   0x00000028   Code   RO         4749    i.__ARM_fpclassify  m_ws.l(fpclassify.o)
    0x080020c0   0x000000aa   Code   RO         4751    i.__kernel_poly     m_ws.l(poly.o)
    0x0800216a   0x00000006   Code   RO         4736    i.__mathlib_dbl_infnan  m_ws.l(dunder.o)
    0x08002170   0x00000004   Code   RO         4737    i.__mathlib_dbl_infnan2  m_ws.l(dunder.o)
    0x08002174   0x0000000c   Code   RO         4738    i.__mathlib_dbl_invalid  m_ws.l(dunder.o)
    0x08002180   0x00000010   Code   RO         4741    i.__mathlib_dbl_underflow  m_ws.l(dunder.o)
    0x08002190   0x0000000e   Code   RO         4812    i.__scatterload_copy  mc_w.l(handlers.o)
    0x0800219e   0x00000002   Code   RO         4813    i.__scatterload_null  mc_w.l(handlers.o)
    0x080021a0   0x0000000e   Code   RO         4814    i.__scatterload_zeroinit  mc_w.l(handlers.o)
    0x080021ae   0x00000002   PAD
    0x080021b0   0x0000000c   Code   RO         4786    i.__set_errno       mc_w.l(errno.o)
    0x080021bc   0x00000164   Code   RO         4674    i._fp_digits        mc_w.l(printfa.o)
    0x08002320   0x000006dc   Code   RO         4675    i._printf_core      mc_w.l(printfa.o)
    0x080029fc   0x00000024   Code   RO         4676    i._printf_post_padding  mc_w.l(printfa.o)
    0x08002a20   0x0000002e   Code   RO         4677    i._printf_pre_padding  mc_w.l(printfa.o)
    0x08002a4e   0x0000000a   Code   RO         4679    i._sputc            mc_w.l(printfa.o)
    0x08002a58   0x00000270   Code   RO         4408    i.asin              m_ws.l(asin.o)
    0x08002cc8   0x00000220   Code   RO         4726    i.atan              m_ws.l(atan.o)
    0x08002ee8   0x00000180   Code   RO         4418    i.atan2             m_ws.l(atan2.o)
    0x08003068   0x00000064   Code   RO         3912    i.decode_gesture    inv_mpu_dmp_motion_driver.o
    0x080030cc   0x0000001a   Code   RO          174    i.delay_ms          delay.o
    0x080030e6   0x0000002e   Code   RO          176    i.delay_us          delay.o
    0x08003114   0x000001cc   Code   RO         3922    i.dmp_read_fifo     inv_mpu_dmp_motion_driver.o
    0x080032e0   0x0000001c   Code   RO         4364    i.fputc             uart1_1.o
    0x080032fc   0x0000002c   Code   RO         4109    i.huoer_INIT        huoer.o
    0x08003328   0x0000004c   Code   RO         4110    i.huoer_check       huoer.o
    0x08003374   0x00000076   Code   RO         4143    i.i2cRead           iic_1.o
    0x080033ea   0x00000060   Code   RO         4144    i.i2cWrite          iic_1.o
    0x0800344a   0x00000002   PAD
    0x0800344c   0x00000158   Code   RO            2    i.main              main.o
    0x080035a4   0x000000c0   Code   RO         3646    i.mpu_read_fifo_stream  inv_mpu.o
    0x08003664   0x000001bc   Code   RO         3650    i.mpu_reset_fifo    inv_mpu.o
    0x08003820   0x00000002   Code   RO         3664    i.myget_ms          inv_mpu.o
    0x08003822   0x00000002   PAD
    0x08003824   0x0000002c   Code   RO         3468    i.pir_INIT          pir.o
    0x08003850   0x0000004c   Code   RO         4755    i.sqrt              m_ws.l(sqrt.o)
    0x0800389c   0x00000818   Data   RO         3343    .constdata          oled.o
    0x080040b4   0x00000050   Data   RO         3666    .constdata          inv_mpu.o
    0x08004104   0x00000004   PAD
    0x08004108   0x00000050   Data   RO         4409    .constdata          m_ws.l(asin.o)
    0x08004158   0x00000098   Data   RO         4727    .constdata          m_ws.l(atan.o)
    0x080041f0   0x00000008   Data   RO         4753    .constdata          m_ws.l(qnan.o)
    0x080041f8   0x00000020   Data   RO         4810    Region$$Table       anon$$obj.o


    Execution Region ER_RW (Base: 0x20000000, Size: 0x00000088, Max: 0xffffffff, ABSOLUTE)

    Base Addr    Size         Type   Attr      Idx    E Section Name        Object

    0x20000000   0x00000010   Data   RW            3    .data               main.o
    0x20000010   0x00000014   Data   RW         1938    .data               stm32f10x_rcc.o
    0x20000024   0x00000030   Data   RW         3521    .data               mpu6050.o
    0x20000054   0x0000002c   Data   RW         3668    .data               inv_mpu.o
    0x20000080   0x00000004   Data   RW         4366    .data               uart1_1.o
    0x20000084   0x00000004   Data   RW         4787    .data               mc_w.l(errno.o)


    Execution Region ER_ZI (Base: 0x20000088, Size: 0x00000518, Max: 0xffffffff, ABSOLUTE)

    Base Addr    Size         Type   Attr      Idx    E Section Name        Object

    0x20000088   0x00000010   Zero   RW         3940    .bss                inv_mpu_dmp_motion_driver.o
    0x20000098   0x00000101   Zero   RW         4365    .bss                uart1_1.o
    0x20000199   0x00000007   PAD
    0x200001a0   0x00000400   Zero   RW          334    STACK               startup_stm32f10x_hd.o


==============================================================================

Image component sizes


      Code (inc. data)   RO Data    RW Data    ZI Data      Debug   Object Name

       172         12          0          0          0       1044   adc1.o
       114          0          0          0          0       1423   bh_gy30.o
        72          0          0          0          0        906   delay.o
       422         32          0          0          0       3632   dht11.o
       120         42          0          0          0        895   huoer.o
       876         98          0          0          0       5652   iic_1.o
       638         12         80         44          0       6229   inv_mpu.o
       560         10          0          0         16       7188   inv_mpu_dmp_motion_driver.o
        68         10          0          0          0        957   ls.o
       540        236          0         16          0     261681   main.o
       112         12          0          0          0        948   misc.o
       604         34          0         48          0       1986   mpu6050.o
       636         76          0          0          0       5420   myiic_1.o
       576         10       2072          0          0       4318   oled.o
        68         10          0          0          0        934   pir.o
        36          8        304          0       1024        760   startup_stm32f10x_hd.o
       358         10          0          0          0       6171   stm32f10x_adc.o
       300          0          0          0          0       2979   stm32f10x_gpio.o
        26          0          0          0          0       3574   stm32f10x_it_1.o
       244         26          0         20          0       3717   stm32f10x_rcc.o
        40          0          0          0          0       1642   stm32f10x_tim.o
       408          6          0          0          0       4786   stm32f10x_usart.o
         0          0          0          0          0         32   sys.o
       328         28          0          0          0       1745   system_stm32f10x_1.o
       140         44          0          0          0        530   time_1.o
       244         24          0          4        257       4179   uart1_1.o

    ----------------------------------------------------------------------
      7728        740       2492        132       1304     333328   Object Totals
         0          0         32          0          0          0   (incl. Generated)
        26          0          4          0          7          0   (incl. Padding)

    ----------------------------------------------------------------------

      Code (inc. data)   RO Data    RW Data    ZI Data      Debug   Library Member Name

       624         52         80          0          0        168   asin.o
       544         70        152          0          0        124   atan.o
       384         38          0          0          0        144   atan2.o
        38          6          0          0          0        272   dunder.o
        40          0          0          0          0         68   fpclassify.o
       170          0          0          0          0         96   poly.o
         0          0          8          0          0          0   qnan.o
        76          0          0          0          0         84   sqrt.o
         0          0          0          0          0          0   entry.o
         0          0          0          0          0          0   entry10a.o
         0          0          0          0          0          0   entry11a.o
         8          4          0          0          0          0   entry2.o
         4          0          0          0          0          0   entry5.o
         0          0          0          0          0          0   entry7b.o
         0          0          0          0          0          0   entry8b.o
         8          4          0          0          0          0   entry9a.o
        12          6          0          4          0         68   errno.o
        30          0          0          0          0          0   handlers.o
        36          8          0          0          0         68   init.o
         0          0          0          0          0          0   iusefp.o
        30          0          0          0          0         68   llshl.o
        36          0          0          0          0         68   llsshr.o
        32          0          0          0          0         68   llushr.o
        36          0          0          0          0        108   memseta.o
      2276         96          0          0          0        596   printfa.o
        44          0          0          0          0         80   uidiv.o
        98          0          0          0          0         92   uldiv.o
        48          0          0          0          0         68   cdrcmple.o
        56          0          0          0          0         88   d2f.o
       334          0          0          0          0        148   dadd.o
       222          0          0          0          0        100   ddiv.o
       186          0          0          0          0        176   depilogue.o
        48          0          0          0          0         68   dfixul.o
        34          0          0          0          0         76   dflti.o
       228          0          0          0          0         96   dmul.o
        46          0          0          0          0         80   dscalb.o
       162          0          0          0          0        100   dsqrt.o
        38          0          0          0          0         68   f2d.o
       176          0          0          0          0        140   fadd.o
       124          0          0          0          0         88   fdiv.o
       110          0          0          0          0        168   fepilogue.o
        18          0          0          0          0         68   fflti.o
       100          0          0          0          0         76   fmul.o

    ----------------------------------------------------------------------
      6460        284        240          4          0       3780   Library Totals
         4          0          0          0          0          0   (incl. Padding)

    ----------------------------------------------------------------------

      Code (inc. data)   RO Data    RW Data    ZI Data      Debug   Library Name

      1876        166        240          0          0        956   m_ws.l
      2650        118          0          4          0       1216   mc_w.l
      1930          0          0          0          0       1608   mf_w.l

    ----------------------------------------------------------------------
      6460        284        240          4          0       3780   Library Totals

    ----------------------------------------------------------------------

==============================================================================


      Code (inc. data)   RO Data    RW Data    ZI Data      Debug   

     14188       1024       2732        136       1304     330760   Grand Totals
     14188       1024       2732        136       1304     330760   ELF Image Totals
     14188       1024       2732        136          0          0   ROM Totals

==============================================================================

    Total RO  Size (Code + RO Data)                16920 (  16.52kB)
    Total RW  Size (RW Data + ZI Data)              1440 (   1.41kB)
    Total ROM Size (Code + RO Data + RW Data)      17056 (  16.66kB)

==============================================================================

