:020000040800F2
:10000000A00500204501000809150008A90F0008F7
:1000100005150008B30C00084D2000080000000082
:10002000000000000000000000000000111B00089C
:10003000610E000800000000BF170008C11C000886
:100040005F0100085F0100085F0100085F01000810
:100050005F0100085F0100085F0100085F01000800
:100060005F0100085F0100085F0100085F010008F0
:100070005F0100085F0100085F0100085F010008E0
:100080005F0100085F0100085F0100085F010008D0
:100090005F0100085F0100085F0100085F010008C0
:1000A0005F0100085F0100085F0100085F010008B0
:1000B000251D00085F0100085F0100085F010008BE
:1000C0005F0100085F0100085F0100085F01000890
:1000D0005F010008D91D00085F0100085F010008EA
:1000E0005F0100085F0100085F0100085F01000870
:1000F0005F0100085F0100085F0100085F01000860
:100100005F0100085F0100085F0100085F0100084F
:100110005F0100085F0100085F0100085F0100083F
:100120005F0100085F0100085F0100085F0100082F
:10013000DFF80CD000F006FC004800474D34000802
:10014000A00500200648804706480047FEE7FEE776
:10015000FEE7FEE7FEE7FEE7FEE7FEE7FEE7FEE777
:10016000C51C000831010008D2B201E000F8012BE3
:10017000491EFBD270470022F6E710B513460A4627
:1001800004461946FFF7F0FF204610BDF0B480EAA0
:100190000102D40F4200B2EB410F02D202460846E0
:1001A00011464A0042D0C30DDDB2C1F3C752AD1AA9
:1001B000202D35DAC1F3160141F4000204B1524298
:1001C000C5F1200602FA06F12A411044B3EBD05FD4
:1001D00023D0C4B1012DA0EBC35009DCF0BC4FF01B
:1001E000004202EAC352DBB200F5000000F0D8BAC8
:1001F000400000F1807000EBC350A0F1807040EA35
:10020000D170490009E0490841EAC071A0EBC35030
:1002100000F50000400800EBC350F0BC00F0B7BA96
:100220006142012202EB4101001BF6E7F0BC70477E
:1002300081F00041AAE780F00040A7E780EA0102D0
:1002400010B502F00043400022D04A001FD0010E3A
:1002500001EB1261C0F35600C2F3560240F40000F5
:1002600042F40002A0FB022000047F39140400D0F5
:10027000401C50EA124001D44000491EC2B20C0694
:1002800004EBD010401C4008802A02D003E000207C
:1002900010BD20F00100002900DA0020184310BD35
:1002A00030B480EA010202F0004530F0004221F053
:1002B000004013D090B1C30DD40DC2F31601C0F3AA
:1002C0001600E41A41F4000140F400027D3491422A
:1002D00001D3641C00E04900002C02DA30BC00208D
:1002E00070474FF400000023914201D3891A034361
:1002F00040084FEA4101F7D151B1914202D14FF08C
:10030000004105E002D24FF0010101E06FF0010170
:1003100003EBC450284430BC00F039BA2DE9FE4F3D
:10032000804681EA0300C00F0C46009021F0004196
:1003300023F00045B8EB0200A94105D24046214612
:1003400090461C460B46024623F00040104347D01F
:10035000270DC7F30A00C3F30A510290401A019017
:1003600040286BDAC3F3130040F4801B00989246D8
:1003700020B10023D2EB030A63EB0B0B0198594623
:10038000C0F14002504600F0E1F906460D465046E5
:100390005946019A00F0E9F910EB08006141002488
:1003A00087EA115284EAE7731A4340D0009A62B395
:1003B000019A012A4FEA075215DC001B61EB02018A
:1003C0004FF0004202EA0752CDE90042001C41F51D
:1003D000801132462B4600F020FA03B0BDE8F08FC2
:1003E00040462146F9E7001B61EB0201001C41F584
:1003F000801300185B412018A2F5001747EB03019A
:1004000040EAD570B6196D4111E06D084FEA360625
:1004100045EAC0754FEA0752001B61EB0201001C60
:1004200041F5801149084FEA300000195141324628
:100430002B4603B0BDE8F04F00F0E0B90098012270
:1004400040000023D0EB020263EBE07300982146EA
:100450004FEAE074B8EB000061EB0401E9E783F0D8
:1004600000435BE781F0004158E72DE9FE4F81EA48
:10047000030404F0004421F0004100944FF0000B0D
:1004800023F0004350EA01045ED052EA03045BD03B
:10049000C3F30A54C1F30A552C44A4F2F334019473
:1004A000A0FB0254C1F3130141F48011C3F3130301
:1004B00043F4801301FB024400FB034E840A970AB5
:1004C00044EA815447EA8357A4FB076802958D0AE2
:1004D00005FB07854FEA932C04FB0C542705029D6E
:1004E0004FEA065847EA1637B5EB08056EEB070CDE
:1004F000870E920E47EA811742EA8312A7FB020198
:10050000B6EB0B0164EB00042B0D43EA0C335E18D1
:1005100044EB1C50DA465146E7FB0201C5F31304D5
:100520004FEA0B3343EA14534FEA0432019C43EA87
:100530000603A4F10C040294009CCDE900B400F081
:100540006CF903B0BDE8F08F00200146F9E72DE912
:10055000F04D81EA030404F0004B21F000451446FD
:100560004FF0000A23F0004150EA050220D054EA7F
:1005700001021DD0C5F30A570246C5F31303C1F3A8
:100580001300C1F30A5640F4801543F48013A7EB1F
:100590000608101BD64608F2FD3873EB050002D39F
:1005A00008F1010801E092185B41B8F1000F03DA8D
:1005B00000200146BDE8F08D00204FF48011064672
:1005C00084460EE0171B73EB050705D3121B63EB84
:1005D000050306434CEA010C49084FEA3000921823
:1005E0005B4150EA0107EDD152EA030012D082EAE2
:1005F000040083EA0501084305D0101BAB4106D275
:100600000122002306E000224FF0004302E06FF0D9
:10061000010253101AEB06004CEB085110EB0A00D4
:1006200041EB0B01BDE8F04D00F0E8B8C10F80EAE6
:10063000E0700844CA079623002100F0B1B80EB557
:10064000C10F80EAE0700844CA07002140F233433A
:100650008DE80E000A460B4600F0DFF803B000BD3F
:1006600000F0004230F000400AD0C10D01F5607189
:10067000C0F3160042EA0151C20840071143704717
:1006800000200146704701F0004330B421F00041E2
:1006900050EA010206D00A0DA2F56072C1F31301FF
:1006A000002A02DC30BC00207047440F44EAC10439
:1006B000C100E01830BC00EBC25000F068B830B5A3
:1006C0000B46014600202022012409E021FA02F510
:1006D0009D4205D303FA02F5491B04FA02F52844AA
:1006E000151EA2F10102F1DC30BD2DE9F05F0546D7
:1006F000002092469B4688460646814640241BE0E1
:10070000284641464746224600F02EF953465A46AF
:10071000C01A914110D311461846224600F016F82F
:100720002D1A67EB01084F4622460120002100F0F8
:100730000DF817EB00094E41201EA4F10104DFDC87
:10074000484631462A464346BDE8F09F202A04DB4E
:10075000203A00FA02F1002070479140C2F12003D4
:1007600020FA03F3194390407047202A06DBCB1789
:10077000203A41FA02F043EAE07306E041FA02F35C
:10078000D040C2F120029140084319467047002929
:10079000A8BF7047401C490008BF20F00100704707
:1007A00010B4B0FA80FC00FA0CF050EA010404BF67
:1007B00010BC704749B1CCF1200421FA04F411FABD
:1007C0000CF118BF012121430843A3EB0C01CB1D01
:1007D0004FEA00614FEA102042BF002010BC704772
:1007E00000EBC35010440029A4BF10BC7047401C4C
:1007F000490008BF20F0010010BC704710B5141E5E
:1008000073F1000408DA401C41F1000192185B41C9
:100810001A4301D120F0010010BD2DE9F04D9246A0
:100820009B4611B1B1FA81F202E0B0FA80F22032B7
:100830009046FFF78BFF04460F4640EA0A0041EA64
:100840000B0153465A46084313D0114653EA0100A0
:1008500019D0C8F14002504600F086F805460E4611
:10086000504659464246FFF771FF084305D0012024
:1008700004E020463946BDE8F08D0020054346EAF5
:10088000E0762C4337430A986305E40AA0EB08009E
:100890000022FD0A44EA47540A3002D500200146EE
:1008A000E9E7010510196941DDE9084500196941C9
:1008B000BDE8F04DA2E770B521F0004303430CD032
:1008C000C1F30A550024D5EB040564EB0403D617E5
:1008D000AD1AB34102DB0020014670BD201841EB88
:1008E000025170BDC1F30A52C1F3130140F2FF334C
:1008F00041F480119A4202DA00200146704740F22A
:1009000033439A42A2F2334202DC524200F02CB846
:10091000FFF71CBF30B5041E71F1000404DB4FF07B
:100920000044404264EB0101141E73F1000405DB36
:100930001C464FF00043524263EB0403994208BF48
:10094000904230BD064C074D06E0E06840F00103E0
:1009500094E8070098471034AC42F6D3FFF7ECFB5D
:10096000F841000818420008202A04DB203A21FA46
:1009700002F00021704721FA02F3D040C2F12002B8
:1009800091400843194670472DE9F04D00231A465F
:100990001B1A8A4103DB00200146BDE8F08DC1F33C
:1009A0000A52C1F3130141F480154FF0000BD10737
:1009B00002D100186D41521E0027044640F2FF117B
:1009C000384601EB620A3E468046024600204FF45C
:1009D0008011FFF7C9FFC2197141BB1846EB010036
:1009E000B4EB030C75EB000C04D3E41A65EB0005C3
:1009F00017460E46241908F101006D41804634283F
:100A0000E3DDF91946EB0600091BA84103D24FF0BC
:100A1000FF32134601E0002213461BEB070046EBB2
:100A20000A51BDE8F04DFFF7E9BE000000B587B000
:100A300001214FF4017000F0C3FE00208DF81B006F
:100A40000120ADF8180006A9114800F00AFA0020AC
:100A50008DF809000490019001208DF81400002009
:100A60008DF8080001A90B4800F03AF8072301228D
:100A70000021084800F05CF801224FF40871054895
:100A800000F022F80121034800F006F807B000BD8D
:100A9000000801400024014021B1826842F00102B7
:100AA000826003E0826822F00102826070470146A2
:100AB000C86C80B270470246002013680B400BB12F
:100AC000012000E00020704710B50023CBB21AB11E
:100AD00044681C43446002E044689C43446010BD89
:100AE00030B502460020002350680F4C20400D799D
:100AF0000C6844EA05242043506090680B4C204069
:100B0000D1E902542C434D7944EA450420439060D6
:100B1000D06A20F470000C7C641EE4B2234340EAE7
:100B20000350D06230BD0000FFFEF0FFFDF7F1FF83
:100B3000F0B504460D4600200021092D11DDE068C6
:100B4000A5F10A0606EB4607072606FA07F18843D1
:100B5000A5F10A0606EB460603FA06F10843E06033
:100B60000CE0206905EB4507072606FA07F18843E4
:100B700005EB450603FA06F108432061072A0FDA60
:100B8000606B561E06EB86071F2606FA07F18843A0
:100B9000561E06EB860605FA06F10843606322E05E
:100BA0000D2A0FDA206BD61F06EB86071F2606FAE2
:100BB00007F18843D61F06EB860605FA06F10843BF
:100BC000206310E0E06AA2F10D0606EB86071F26FF
:100BD00006FA07F18843A2F10D0606EB860605FA30
:100BE00006F10843E062F0BD21B1826842F4A00240
:100BF000826003E0826822F4A002826070470000F5
:100C000070B50024002500BF11E001210B48FFF75B
:100C1000EBFF00BF02210948FFF74DFF0128F9D182
:100C20000648FFF744FF204484B2681CC5B2322D49
:100C3000EBDB322094FBF0F080B270BD0024014069
:100C400010B5012000F021F8072000F01EF8102058
:100C500000F01BF810BD10B5002400F0BBFB4720CE
:100C600000F090FB00F0ECFB012000F05FFB04467D
:100C70004FF6FF7000EA0424002000F057FB2044E8
:100C800084B200F0C3FB204610BD10B5044600BF7F
:100C900000F0A0FB462000F075FB00F0D1FB00281F
:100CA000F6D1204600F06EFB00F0CAFB00F0AEFB70
:100CB00010BD00BFFEE7000010B500241548006815
:100CC00020F47040134908600846006840F4004072
:100CD000086004E0601CC4B2012002F004FA0E486F
:100CE000006808B1642CF5DB642C01DB012010BD29
:100CF000002404E0601CC4B2012002F0F4F90648AC
:100D0000006808B9642CF5DB642C01DB0120EEE7F8
:100D10000020ECE7040801402C01214208B5012124
:100D2000042000F04DFD4FF40060ADF800001020ED
:100D30008DF8030003208DF802006946064800F094
:100D400090F84FF40061044800F01FF900F068F8D3
:100D5000FFF7B2FF08BD00000008014010B50024F5
:100D600004E0601CC4B2012002F0BDF90D48006827
:100D700008B1642CF5DB002404E0601CC4B201203F
:100D800002F0B1F90748006808B9642CF5DB2820A7
:100D900002F0A9F90348006808B1012010BD002045
:100DA000FCE700002C01214270B50024002506E07C
:100DB0006006040EFFF7D2FF0443681CC5B2082D7D
:100DC000F6DB204670BD7CB505460E4600F028F8DF
:100DD000FFF772FFF8B9002405E0FFF7E5FF0DF813
:100DE0000400601CC4B2052CF7DB9DF800009DF8E0
:100DF000011008449DF8021008449DF803100844AF
:100E00009DF80410884208D19DF8000030709DF8CC
:100E10000200287001E001207CBD0020FCE70000FA
:100E200010B50C48006820F470400A490860084674
:100E3000006840F440500860002007490860142012
:100E400002F044F901200549C1F8AC011E2002F06E
:100E50004AF910BD04080140AC01214200002142C2
:100E600070472DE9F04102460025002600200023AE
:100E70000024002791F803C00CF00F0591F803C07F
:100E80000CF0100CBCF1000F03D091F802C04CEA3A
:100E9000050591F800C0BCF1000F31D014680020A6
:100EA0002BE04FF0010C0CFA00F3B1F800C00CEA93
:100EB00003069E4220D183004FF00F0C0CFA03F77B
:100EC000BC4305FA03FC4CEA040491F803C0BCF1EE
:100ED000280F06D14FF0010C0CFA00FCC2F814C028
:100EE0000AE091F803C0BCF1480F05D14FF0010CA6
:100EF0000CFA00FCC2F810C0401C0828D1D31460C2
:100F0000B1F800C0BCF1FF0F34DD546800202EE0C2
:100F100000F1080C4FF0010808FA0CF3B1F800C01A
:100F20000CEA03069E4221D183004FF00F0C0CFA0D
:100F300003F7BC4305FA03FC4CEA040491F803C030
:100F4000BCF1280F05D100F1080C08FA0CF8C2F822
:100F5000148091F803C0BCF1480F07D100F1080CD0
:100F60004FF0010808FA0CF8C2F81080401C08285D
:100F7000CED35460BDE8F0810246002093680B4058
:100F80000BB1012000E000207047016170470000B4
:100F900010B540210348FFF7EFFF08B9002010BD4E
:100FA0000120FCE70008014000BFFEE710B500206B
:100FB0000E4908600E48006820F070400C49086037
:100FC0000846006840F04050086000200949C1F818
:100FD0009C0100F011F801200449086000F00CF8B1
:100FE00000200449C1F8980110BD000098812142F9
:100FF000000C01400080214210B5022002F073F87D
:1010000010BD000010B500200E4908600E480068B1
:1010100020F070400C4908600846006840F04050DD
:10102000086001200949C1F89C01FFF7E5FF012094
:1010300004490860FFF7E0FF00200449C1F8980167
:1010400010BD000098812142000C01400080214227
:1010500070B5054600241648006820F07040144919
:1010600008600846006840F000400860002614E070
:10107000002010490860FFF7BFFF01200E49C1F8AA
:1010800098016006040E0B487C38006808B1601CAB
:10109000C4B2FFF7B1FF701CC6B2082EE8DB15B969
:1010A000FFF7B0FF01E0FFF781FF204670BD0000B1
:1010B000000C0140988121420080214270B5044615
:1010C0001748006820F0704015490860084600681D
:1010D00040F04050086000201249086000251BE0E5
:1010E000E00920B101200F49091D086003E000203C
:1010F0000C49091D08606006040EFFF77DFF012002
:1011000008490860FFF778FF00200749C1F89801F7
:10111000FFF772FF681CC5B2082DE1DB70BD00004F
:10112000000C0140988121420080214210B51648F0
:10113000006820F07040144908600846006840F0DC
:10114000405008600120114908601148D0F81C0186
:1011500008B9002010BD01200C49091F0860FFF7E5
:101160004BFF00200A49C1F89C01084880380068FC
:1011700008B10020EEE7FFF73FFF00200349091FF9
:1011800008600120E6E70000000C01409C8121423C
:101190000080214210B50E48006820F070400C49D4
:1011A00008600846006840F0405008600020094987
:1011B00008600949C1F89C01FFF71EFF012005499D
:1011C00008600549C1F89C01FFF716FF10BD00003B
:1011D000000C0140988121420080214210B500247A
:1011E0001548006820F07040134908600846006800
:1011F00040F000400860012010490860FFF7FCFE45
:1012000001200F49C1F89801FFF7F6FE09E0601CC4
:10121000C4B2642C03DDFFF7BDFF002010BDFFF753
:10122000EBFE0648803800680028F0D10349091F0A
:1012300008600120F2E70000000C01409C8121427F
:101240000080214208B50121242000F0B9FA0420D1
:101250008DF803001020ADF8000003208DF8020087
:1012600069460248FFF7FDFD08BD00000008014087
:1012700010B510210348FFF77FFE08B9002010BD0C
:101280000120FCE70008014010B500200A49086071
:1012900000F00EF900200949C1F89C01022001F07C
:1012A00022FF012004490860022001F01CFF0020F9
:1012B0000249C1F8940110BD94012142000021426D
:1012C00008B50121042000F07BFAA020ADF8000051
:1012D00014208DF8030003208DF8020069460448AD
:1012E000FFF7BFFDA0210248FFF74FFE08BD000039
:1012F0000008014010B500200A49086000F0D8F845
:1013000001200949C1F89C01022001F0ECFE0120F6
:1013100004490860022001F0E6FE00200249C1F8FD
:10132000940110BD940121420000214270B5054690
:10133000002400F0ABF8002616E000200F490860FA
:10134000022001F0D0FE01200D49C1F89401600691
:10135000040E0A487838006808B1601CC4B2012045
:1013600001F0C1FE701CC6B2082EE6DB15B9FFF70E
:10137000C1FF01E0FFF788FF204670BD94012142C4
:101380000000214270B5044600F092F800200F4999
:101390000860002517E0E0090C4908310860600684
:1013A000040E022001F09FFE01200949C1F89401BA
:1013B000022001F098FE002004490860022001F09C
:1013C00092FE681CC5B2082DE5DB70BD9401214278
:1013D0000000214210B500F06BF8012009490860B7
:1013E0000949C1F89401042001F07DFE002005495F
:1013F0000860042001F077FE00200349C1F8940141
:1014000010BD00009C0121420000214210B500F0F7
:101410004FF80020084908600849C1F89C010420E1
:1014200001F061FE0120044908600449C1F89C01F3
:10143000042001F058FE10BD940121420000214219
:1014400010B5002400F022F801200E49086001F0D8
:101450004AFE01200C49C1F8940101F044FE07E066
:10146000601CC4B2FA2C03DDFFF7D0FF012010BDD1
:101470000448803800680028F2D102490839086021
:1014800000BFF4E79C0121420000214208B5802002
:10149000ADF8000003208DF8020004208DF8030051
:1014A00069460248FFF7DDFC08BD00000008014066
:1014B00008B58020ADF8000003208DF8020014204C
:1014C0008DF8030069460248FFF7CBFC08BD000019
:1014D0000008014070B506460C461546FFF77AFF36
:1014E0003046FFF74FFFFFF7ABFF2046FFF74AFFFD
:1014F000FFF7A6FF2846FFF745FFFFF7A1FFFFF71D
:1015000085FF70BD00BFFEE77047000070B5002189
:1015100000230F22C47804B3154C246804F4E0645B
:10152000C4F5E064210AC1F10403CA40447804FA16
:1015300003F184781440214309010E4C0678A1552B
:10154000047804F01F050124AC4005786D11AD004E
:1015500005F1E025C5F8004109E0047804F01F0515
:101560000124AC40044D0678761145F8264070BD44
:101570000CED00E000E400E080E100E070B5002444
:1015800018E004F1B000002100F009F9002108463C
:1015900000F005F90021102000F001F9002505E018
:1015A0000121002000F0FBF8681CC5B2802DF7DB9C
:1015B000601CC4B2082CE4DB70BD10B50021AE2065
:1015C00000F0EDF80021084600F0E9F800211020B5
:1015D00000F0E5F80021402000F0E1F80021B02003
:1015E00000F0DDF80021812000F0D9F80021FF2073
:1015F00000F0D5F80021A12000F0D1F80021A620AC
:1016000000F0CDF80021A82000F0C9F800213F200B
:1016100000F0C5F80021C82000F0C1F80021D32057
:1016200000F0BDF80021084600F0B9F80021D520EF
:1016300000F0B5F80021802000F0B1F80021D8209A
:1016400000F0ADF80021052000F0A9F80021D92014
:1016500000F0A5F80021F12000F0A1F80021DA2027
:1016600000F09DF80021122000F099F80021DB2005
:1016700000F095F80021302000F091F800218D2035
:1016800000F08DF80021142000F089F80021AF202F
:1016900000F085F810BD70B504460D4605F1B000A8
:1016A000002100F07CF8102141EA1410002100F024
:1016B00076F804F00F00002100F071F870BD000012
:1016C0002DE9F04707460E4690469946002500242E
:1016D000A8F12000C5B27F2F02DD0027B01CC6B2E2
:1016E000B9F1100F24D131463846FFF7D4FF00245A
:1016F00008E004EB0511194A505C012100F04FF895
:10170000601CC4B2082CF4DB701CC1B23846FFF771
:10171000C2FF002409E004EB051108310F4A505CB8
:10172000012100F03CF8601CC4B2082CF3DB12E08D
:1017300031463846FFF7AFFF00240AE005EB4501CC
:10174000074A02EB4101085D012100F028F8601C06
:10175000C4B2062CF2DBBDE8F0870000C43A0008F2
:101760009C3800082DE9F04104460F46154698467E
:1017700000260FE0AA5D434639462046FFF7A0FF4A
:1017800004F10800C4B2782C02DD0024B81CC7B2F2
:10179000701CC6B2A85D0028ECD1BDE8F08170B520
:1017A00004460D462DB1E2B240217820FFF792FEAB
:1017B00004E0E2B200217820FFF78CFE70BD704794
:1017C00029B1064A92690243044B9A6104E0034A34
:1017D00092698243014B9A617047000000100240F9
:1017E00030B500210022002400232D4D6D6805F046
:1017F0000C0121B1042905D0082923D105E0294D88
:10180000056022E0274D05601FE0254D6D6805F459
:101810007012234D6D6805F48034022505EB924269
:101820001CB9214D554305600BE01D4D6D6805F455
:1018300000351DB11C4D5543056002E0194D55435F
:10184000056002E0174D056000BF00BF144D6D68D4
:1018500005F0F0010909154D6B5C0568DD40456038
:101860000F4D6D6805F4E061090A104D6B5C456829
:10187000DD4085600A4D6D6805F46051C90A0B4D65
:101880006B5C4568DD40C560054D6D6805F4404101
:10189000890B074D6B5CC568B5FBF3F5056130BD81
:1018A0000010024000127A0000093D0010000020E4
:1018B000200000202DE9F04F91B004468946924661
:1018C0000EA88B490FAB0AAACDE9001089498A48B6
:1018D00001F020FC8648008800F4807000287DD04C
:1018E0000A98FEF7A3FE05464FF09D41FEF7D8FC8F
:1018F000824908600B98FEF799FE05464FF09D411E
:10190000FEF7CEFC7E4908600C98FEF78FFE054678
:101910004FF09D41FEF7C4FC7A4908600D98FEF730
:1019200085FE05464FF09D41FEF7BAFC76490860FA
:10193000724801684FF08040FEF780FC05907148C6
:1019400001680598FEF77AFC83466D4801684FF000
:101950004040FEF773FC05906B4801680598FEF760
:101960006DFC59460690FEF711FC0790FEF778FED5
:10197000CDE9080101F070F807464FF06632634B7D
:10198000FEF773FD0546FEF77EFE20605D480168A8
:101990004FF08040FEF752FC02905A4801680298CE
:1019A000FEF74CFC8346564801684FF04040FEF776
:1019B00045FC0290524801680298FEF73FFC5946E8
:1019C0000390FEF735FC80464FF07E51FEF7DEFBBC
:1019D0000746FEF745FECDE9060100E084E04748F2
:1019E00001684FF08040FEF729FC039044480168ED
:1019F0000398FEF723FC8046424801684FF0804080
:101A0000FEF71CFC0390404801680398FEF716FCA3
:101A100083464146FEF7BAFB0746FEF721FECDE9B5
:101A20000401DDE9062301F05FFA4FF06632374B1F
:101A3000CDE90801FEF719FD0546FEF724FEC9F8B9
:101A40000000314801680068FEF7F8FB04902D485B
:101A500001680068FEF7F2FB0290294801680068FF
:101A6000FEF7ECFB0190254801680068FEF7E6FBF5
:101A700000900199FEF78AFB83460299FEF7D8FB96
:101A800003900499FEF7D4FB0590FEF7E9FD0546A7
:101A90000E461D48016819480068FEF7CFFB049008
:101AA0001848016816480068FEF7C8FB03900499BF
:101AB000FEF76CFB4FF080410590FEF7BFFB8346BD
:101AC000FEF7CEFD2A463346CDE9060101F00CFAB9
:101AD0004FF066320D4BCDE90801FEF7C6FC074614
:101AE000FEF7D1FDCAF8000011B0BDE8F08F00008C
:101AF000300000202A0000202400002034000020B4
:101B0000380000203C0000204000002066A64C4029
:101B1000704710B500F002F810BD00000CB50020B1
:101B2000019000903348006840F4803031490860EB
:101B300000BF3048006800F4003000900198401C5D
:101B40000190009818B90198B0F5A06FF1D129481B
:101B5000006800F4003010B10120009001E0002086
:101B600000900098012843D12348006840F01000FD
:101B7000214908600846006820F003000860084614
:101B8000006840F0020008601A484068194948603F
:101B90000846406848600846406840F480604860F5
:101BA0000846406820F47C1048600846406840F4CD
:101BB000E81048600846006840F08070086000BF88
:101BC0000C48006800F000700028F9D0094840680F
:101BD00020F00300074948600846406840F00200D2
:101BE000486000BF0348406800F00C000828F9D1A5
:101BF0000CBD000000100240002002403EB504462B
:101C000000200090019002900A2C05DA224616A1CD
:101C1000684600F02DFA1FE0642C05DA224617A171
:101C2000684600F025FA17E0B4F57A7F05DA224617
:101C300017A1684600F01CFA0EE042F210708442D0
:101C400005DA224616A1684600F012FA04E02246A0
:101C500017A1684600F00CFA10236A4605210020FF
:101C6000FFF780FD3EBD00004C696768743A20258F
:101C70006420202020204C75780000004C696768A3
:101C8000743A202564202020204C75780000000044
:101C90004C696768743A2025642020204C757800D0
:101CA0004C696768743A20256420204C75780000E0
:101CB0004C696768743A202564204C7578000000F0
:101CC0007047000010B51348006840F0010011494A
:101CD000086008464068104908400E4948600846B8
:101CE00000680E4908400B4908600846006820F467
:101CF000802008600846406820F4FE0048604FF4E9
:101D00001F008860FFF705FF4FF00060044908607E
:101D100010BD0000001002400000FFF8FFFFF6FEBB
:101D200008ED00E02DE9F04387B000200690059013
:101D300004900121880700F03EF801281BD104AA75
:101D400005A906A8FFF7B6FD0498FEF789FC04462E
:101D50000D460598FEF784FC06460F460698FEF7EA
:101D60007FFC804642460B4606A0CDE90067CDE9E0
:101D7000024500F06DF90121880700F019F807B05D
:101D8000BDE8F083B8A9D1F6BDC73D252E32662047
:101D90002020BAE1B9F6BDC73D252E3266202020AD
:101DA000C6ABBABDBDC73D252E32662020200A0035
:101DB000CA430282704730B5024600200023002447
:101DC000158A05EA0103958905EA010413B10CB1EE
:101DD000012000E0002030BD10B540F2255105483B
:101DE00000F016F820B1034800F0CEF8C4B200BFEE
:101DF00010BD00000038014021B1828942F4005238
:101E0000828104E082894DF6FF731A408281704717
:101E100070B50246002400230025002040F66A1613
:101E2000B14200D100BFC1F3421501F01F030126EA
:101E300006FA03F3012D02D19689334006E0022D04
:101E400002D1168A334001E0968A33400C120126F3
:101E500006FA04F41688344013B10CB1012000E0F6
:101E6000002070BDF0B503460024002600250020A8
:101E700040F66A17B94200D100BF1846C1F34214B8
:101E800001F01F06012707FA06F5012C01D10C30DD
:101E900004E0022C01D1103000E014301AB10768C0
:101EA0002F43076002E00768AF430760F0BD000002
:101EB0002DE9F04786B005460E460024A24600BF35
:101EC000A1460027B08900B100BF2F462C8A4CF6EE
:101ED000FF700440F08804432C82AC894EF6F31066
:101EE0000440B08831890843718908430443AC81B8
:101EF000AC8A4FF6FF400440B0890443AC8201A88D
:101F0000FFF76EFC1F48874202D1DDF810A001E008
:101F1000DDF80CA0A88900F4004040B10AEBCA002B
:101F200000EB0A1031684900B0FBF1F807E00AEB5A
:101F3000CA0000EB0A1031688900B0FBF1F8642098
:101F4000B8FBF0F004012009642101FB1089A88985
:101F500000F4004040B1322000EBC900B0FBF1F0CA
:101F600000F00700044308E0322000EB0910642170
:101F7000B0FBF1F000F00F0004432C8106B0BDE887
:101F8000F08700000038014001468888C0F308004F
:101F90007047000010B586B00446012144F20400E9
:101FA000FFF70EFC4FF40070ADF8140003208DF81D
:101FB000160018208DF8170005A91D48FEF751FFDF
:101FC0004FF48060ADF8140004208DF8170005A9C7
:101FD0001748FEF746FF25208DF8000003208DF8F6
:101FE00001008DF8020001208DF803006846FFF71C
:101FF0008DFA01940020ADF80800ADF80A00ADF8A4
:102000000C00ADF810000C20ADF80E0001A9094835
:10201000FFF74EFF012240F225510648FFF722FF4D
:1020200001210448FFF7E8FE00F006F806B010BDF5
:10203000000801400038014010B540F2011102488B
:10204000FEF799F810BD00009800002000BFFEE7E1
:102050000FB4054B10B503A9044A029800F060F9CB
:1020600010BC5DF814FB0000E13200088000002085
:102070000FB4084B10B504A902AA039800F050F958
:10208000044602A9002000F0E2FC204610BC5DF8E6
:1020900014FB00004F2A0008490050EAC12018BF75
:1020A00004204A0D18BF40F0010040F2FF72B2EB6D
:1020B000515F08BF40F00200012808BF05207047AB
:1020C0002DE9F0414F1E00EBC7010446D1E90001A4
:1020D00015461E4637F006020DD02A463346FEF757
:1020E000C4F97F1E04EBC703D3E90023FEF716F9FA
:1020F00037F00602F1D1022F25D0042F13D0062F7E
:1021000018BFBDE8F0812A463346FEF7AEF9D4E9A0
:102110000A23FEF703F92A463346FEF7A6F9D4E967
:102120000823FEF7FBF82A463346FEF79EF9D4E96A
:102130000623FEF7F3F82A463346FEF796F9D4E96C
:102140000423FEF7EBF82A463346FEF78EF9D4E96E
:102150000223FEF7E3F82A463346FEF786F9D4E970
:102160000023BDE8F041FEF7D9B80122FEF7A3BB7A
:10217000FEF7D4B80022134610461146FEF7E7B921
:10218000024A00201107FEF796BB000001FDFFFF89
:1021900002E008C8121F08C1002AFAD17047704730
:1021A000002001E001C1121F002AFBD1704700008E
:1021B0000149086070470000840000202DE9FF5F9E
:1021C000DDE90220010DDDF838B0024318D044F6F5
:1021D0001050A1F2FF3141430D140F98012820D077
:1021E000A5EB0B00401C5FEA000A4FF00004474ECD
:1021F000DFF81C91A046504616D5CAF1000728E02A
:102200000F98012443A2012808D0002100980F9BB9
:10221000C0E90021C0E90243BDE8FF9F6FEA0B015E
:10222000F4E7CBF10000DEE7074612E0F80707D03D
:102230002246334640464946FEF717F9804689460E
:102240002246334610461946FEF70FF904460E465D
:102250007F10002FEAD1DDE90201BAF1000F4246FA
:102260004B4602DAFEF701F901E0FEF770F9044689
:102270000E460022284BFEF74DFB03D84FF0FF30EF
:10228000014607E00022254B20463146FEF746F87E
:10229000FEF728FB102409E0002C0ADB0A220023A9
:1022A000FEF723FA019B30321A55641E50EA0102F0
:1022B000F2D1641C019AC4F1110314440F9A012A4B
:1022C00003D0012208430DD10AE0084304D00020C6
:1022D0004FF0110B0F9080E7A3EB0B056D1E0DE087
:1022E0005B4504DD4FF0000205F1010504E003DA6F
:1022F0004FF00002A5F10105002AECD000980F99DB
:10230000C0E90231C0E9004586E700000000244032
:102310000000F03F300000000000F0430000E03F0C
:102320002DE9FF4F95B09B468946064600250FE2F2
:10233000252877D100242746F84A0121059400E09A
:10234000044316F8013F203B01FA03F01042F7D195
:1023500030782A2811D06FF02F033078A0F13002A6
:10236000092A16D8059A44F0020402EB820203EB14
:1023700042021044761C0590EFE759F8042B0592B1
:10238000002A03DA504244F40054059044F0020459
:10239000761C30782E2816D116F8010F44F004046C
:1023A0002A280DD06FF02F023078A0F13003092BCE
:1023B00009D807EB870302EB4303C718761CF3E742
:1023C00059F8047B761C30786C280FD006DC4C283A
:1023D00017D068280DD06A2814D104E0742810D0D2
:1023E0007A280FD10DE044F400140AE044F480147C
:1023F00001E044F440147278824202D104F5801462
:10240000761C761C307866280BD013DC582877D0E1
:1024100009DC002875D04528F6D04628F4D0472896
:102420001AD19DE118E0632835D0642879D0652859
:1024300012D195E1702873D008DC6728F1D06928A3
:102440006FD06E280DD06F2806D1B5E073282CD040
:10245000752875D0782874D05A46179990476D1C06
:1024600075E1C4F30250022809D003280DD0D9F831
:10247000001004280DD00D6009F1040967E1D9F8B6
:102480000010EA17C1E90052F6E7D9F800100D80F4
:10249000F2E70D70F0E719F8041B8DF8001000202A
:1024A0008DF80100EA46012003E059F804AB4FF033
:1024B000FF3061074FF0000102D40DE008F1010187
:1024C0008846B9420FDA8045F8DB1AF8081000296F
:1024D000F4D108E008F1010188468142FADB1AF8DC
:1024E00008100029F6D105985B46A0EB08072146A5
:1024F0003846179A00F094FA284400EB080507E0E4
:102500004DE029E10DE01AF8010B5A461799904762
:10251000B8F10108F7D25B4621463846179A13E115
:1025200042E00A220092C4F302524FF0000A022A4B
:1025300008D059F804CB032A4FEAEC710AD00DE019
:1025400029E02AE009F1070121F00702F2E802C1BF
:10255000914609E00FFA8CFC4FEAEC71042A03D192
:102560004FFA8CFC4FEAEC71002907DA0A46002189
:10257000DCF1000C61EB02012D2202E0220504D502
:102580002B228DF80420012203E0E20701D0202253
:10259000F7E7904659E00A2102E010220DE01021F1
:1025A0004FF0000A00910BE010224FF0000A44F0B7
:1025B00004040827009203E008224FF0000A00926A
:1025C000C4F30252022A05D059F804CB0021032A91
:1025D00008D009E009F1070121F00702F2E802C181
:1025E000914605E01FFA8CFC042A01D10CF0FF0C87
:1025F0004FF00008220728D5702806D0009B83F0F2
:10260000100353EA0A0305D00EE040228DF804209F
:10261000012208E05CEA010206D030228DF8042095
:102620008DF8050002229046009B83F0080353EAD0
:102630000A030AD15CEA010201D1620705D5302202
:102640008DF804204FF001087F1E582804D034A0D4
:1026500003900EA802900DE036A0F9E753466046BD
:10266000009AFEF742F884460398825C0298401E66
:10267000029002705CEA0100F0D1029806A9081AE3
:1026800000F1200A600702D524F4803400E001271D
:10269000574502DDA7EB0A0000E0002000EB0A012D
:1026A000009005984144401A0590E00306D45B462B
:1026B0002146179A059800F0B3F90544002706E073
:1026C00001A85A46C05D179990476D1C7F1C47456D
:1026D000F6DBE0030CD55B462146179A059800F01F
:1026E0009FF9054404E030205A46179990476D1C25
:1026F0000099481E00900029F5DC08E00298029934
:102700005A460078491C0291179990476D1CBAF1FE
:102710000001AAF1010AF1DC65E1000009280100CD
:102720003031323334353637383961626364656647
:102730000000000030313233343536373839414209
:10274000434445460000000000F058F90544761C5B
:10275000307800287FF4ECAD19B02846BDE8F08F42
:10276000620700D4062709F1070222F0070CFCE8F3
:102770000223E14603F000485FEA080C02D00FF2A2
:10278000702C0DE05FEA045C02D50FF2682C07E0C4
:102790005FEAC47C02D00FF2602C01E0AFF2700C53
:1027A0004FF0FF3823F00043CDF850C065280CD01F
:1027B00006DC452809D046281DD047283DD13DE0FC
:1027C000662818D067287ED138E00021112F01DB60
:1027D000112000E0781CCDE9000106A90EA8FFF742
:1027E000EDFCDDE90F010E9A03910021009207F143
:1027F000010A04914DE04FF000400097CDE901102F
:1028000006A90EA8FFF7DAFCDDE90F0203920E9B82
:1028100011990022DDF80CA00093049211B9791CE3
:1028200000EB010AB7EB0A0004D4C0F1FF3007F156
:10283000010A0490AAEB0700019044E0012F00DA9E
:1028400001270021112F01DD112000E03846CDE9DC
:10285000000106A90EA8FFF7B1FCDDE90F010E9AF1
:102860000391002104910092BA4621070CD40399E8
:10287000514500DA8A46BAF1010F05DD009AAAF146
:102880000101515C302908D0B84202DA10F1040F7E
:1028900006DA0121CDE9011015E0AAF10101E9E70D
:1028A000002805DC049901440491AAEB000102E030
:1028B000411C514500DD8A460499401A401C019094
:1028C0004FF000400290200704D40198504501DBEE
:1028D000CDF8048000208DF84F0002980DF14F07CD
:1028E000B0F1004F25D02B200E9002984FF0020837
:1028F00000280CDA404202902D200E9007E00A21B9
:102900000298FDF7DCFE3031029007F8011DB8F1A6
:102910000001A8F10108F2DC02980028EFD1791E2D
:102920000E980870307800F0200040F0450007F85D
:10293000020D12A8C01B00F107081498007800B11E
:10294000012000EB0A01019801EBE0710598414478
:10295000401A401E0590E00306D45B462146179AB4
:10296000059800F05DF805441498007818B15A46AF
:10297000179990476D1CE00324D55B462146179AB2
:10298000059800F04DF805441CE00498002807DB8A
:10299000DDE90301884203DD0098405C179901E0FE
:1029A000179930205A469047049805F10105401CBC
:1029B00004900198401E019004D12E205A46179988
:1029C00090476D1CBAF10001AAF1010ADDDC05E0B7
:1029D00017F8010B5A46179990476D1CB8F1000182
:1029E000A8F10108F4DC5B462146179A0598ABE68E
:1029F0002D0000002B000000200000002DE9F04118
:102A0000044600251E461746880404D405E03946CE
:102A10002020B0476D1C641EF9D52846BDE8F08122
:102A20002DE9F041044600251E469046C80301D515
:102A3000302700E02027880404D505E041463846C9
:102A4000B0476D1C641EF9D52846BDE8F0810A68C0
:102A5000531C0B60107070472DE9F04D8D4F21F025
:102A6000004A86B005460C46BA452ADBAAEB0700A9
:102A700028430AD08848824501DC1AD1CDB106B07E
:102A80002846BDE8F04DFFF770BB844A844B2846CA
:102A9000FDF7EBFC07460E46824A834B284621464B
:102AA000FDF7E3FC06B03A463346BDE8F04DFDF7CE
:102AB00035BC0120FFF77CFB06B0BDE8F04DFFF709
:102AC00059BB7A48824542DABAF1795F0BDA284677
:102AD000FFF7E2FA042808BFFFF752FB284606B0CA
:102AE0002146BDE8F08D2A460B461046FDF7BDFC99
:102AF000834602466E480E460B4606217844FFF791
:102B0000DFFA5A463346FDF7B0FC804669488A46EC
:102B10005A46334604217844FFF7D2FA5A463346E0
:102B2000FDF7A3FC00223B46FDF7F8FB02460B46EF
:102B300040465146FDF70BFD2A462346FDF795FC1E
:102B400006B02A462346BDE8F04DFDF7E7BB284610
:102B500024F0004100223D463B46FDF783FC4FF048
:102B6000FF32FDF7A8FE0646024653480F460B46C5
:102B700006217844FFF7A4FA32463B46FDF775FC80
:102B8000CDE900014D4832463B4604217844FFF729
:102B900097FA32463B46FDF768FC00222B46FDF7CC
:102BA000BDFB834602913046394600F051FE804617
:102BB00043480D46504517DCDDE900015A46029BAB
:102BC000FDF7C5FC42462B46FDF74FFC42462B461F
:102BD000FDF7A4FB0122FDF76EFE304A304BFDF7F6
:102BE0003EFC304A304B4CE04FF0000A52460B4658
:102BF0004046FDF793FBCDE9031052462B461046A5
:102C00001946FDF732FC32463B46FDF72BFCDDE969
:102C10000332FDF79CFC06460F46DDE900015A46EB
:102C2000029BFDF794FC8346009101223046394611
:102C3000FDF741FE194A1A4BFDF714FC06460F46F4
:102C4000012240462946FDF736FE5A46009BFDF715
:102C50000CFC32463B46FDF702FC06460F460122BD
:102C600050462946FDF727FE0E4DDFF858802A46CC
:102C70004346FDF7F7FB32463B46FDF7F3FB2A469A
:102C80004346FDF7EFFB002CD8BF81F0004106B0B2
:102C9000BDE8F08D0000F03F0000F07F075C1433CA
:102CA00026A6913C182D4454FB21F93F0000E03F3B
:102CB000081600001E16000092150000A81500005E
:102CC0003333EF3FFB21E93F2DE9F84F04460D4632
:102CD00021F0004000917349814211DC7249884221
:102CE00001DC06D12CB120462946BDE8F84FFFF79C
:102CF0003CBA6E48002DCCBF6D496E49BDE8F88FD7
:102D00006D49814211DD6D498142D8BF4FF0FF36D8
:102D10006DDD20462946FFF7BFF9042808BFFFF7FD
:102D20002FFA20462946BDE8F88F6549654F25F002
:102D30000045814233DD6449814219DD0026324677
:102D40004FF0804320462946FDF7E8FA80468A4640
:102D5000012220462946FDF7AEFD00223B46FDF745
:102D60007EFB42465346FDF7F2FB04460D463EE02D
:102D700001260022BA463B4620462946FDF7CEFAF8
:102D800080460F460022534620462946FDF767FB42
:102D900042463B46FDF7DBFB04460D4627E04B4928
:102DA00081421BDDDFF828A102260022534620467F
:102DB0002946FDF75AFB00223B46FDF7AFFA804655
:102DC0000F460022534620462946FDF748FB42465F
:102DD0003B46FDF7BCFB04460D4608E003262246B1
:102DE0002B4600203B49FDF7B2FB04460D46224628
:102DF0002B4610461946FDF738FB8B4682460246A5
:102E00000B46FDF732FB07460246334888460B4621
:102E100006217844FFF754F952465B46FDF725FB3F
:102E200082462E488B463A46434605217844FFF7B2
:102E300047F93A464346FDF718FB02460B46002E7B
:102E4000504659460CDAFDF769FA22462B46FDF743
:102E50000CFB01B022462B46BDE8F04FFDF702BB4C
:102E6000FDF75CFA22462B46FDF7FFFA1C4A7A442E
:102E700002EBC603D3E90023FDF7F1FA22462B4605
:102E8000FDF7EDFA174A7A4402EBC603D3E90023B3
:102E9000FDF7E8FA009A002AB8BF81F00041BDE8CA
:102EA000F88F0000000010440000F07F182D4454FB
:102EB000FB21F93FFB21F9BF0000DC3F0000203E71
:102EC0000000F33F0000F03F0000E63F00800340B9
:102ED0000000F83F0000F0BFAA13000068130000D4
:102EE00006130000CE1200002DE9F04D9446CCF1FF
:102EF000000423F000464CEA0404524F46EAD4741E
:102F00009A46884621F00042BC4206D8454240EA33
:102F1000050442EAD474BC4204D9BDE8F04D6246CF
:102F2000FFF726B9AAF14055A5F17F6555EA0C04D3
:102F30000BD0022404EAAA74434DDFF810E144EAFE
:102F4000D87452EA000B04D00CE0BDE8F04DFFF756
:102F5000BBBE002C14BF012CBDE8F08D022C30D07C
:102F6000032C32D056EA0C0B0AD0BE4220D1BA4212
:102F700009D126F0804622F080423346114617E000
:102F800000291ADB25E0DFF8C8B0FB44002C04BFA1
:102F9000DBE90001BDE8F08D012C02BFDBE9000197
:102FA00081F00041BDE8F08D022C0AD0032C0CD03A
:102FB000BA4212D1B8F1000F0BDA23482549BDE817
:102FC000F08D28462449BDE8F08D28467146BDE8BD
:102FD000F08D1D482149BDE8F08D921B12153C2A49
:102FE000C4BF19481D490EDCBAF1000FBEBF12F173
:102FF0003C0F0020014606DB6246FDF7A8FA21F0EF
:103000000041FFF761FE002C08BFBDE8F08D012CE8
:1030100004BF81F00041BDE8F08D114A114B022C34
:1030200007D0FDF71CFA2A46BDE8F04D0A4BFDF724
:1030300016BAFDF714FA2A46BDE8F04D064BFDF727
:1030400011BA00000000F07F182D4454FB2109C084
:1030500062120000FB21F9BFFB210940FB21F93F6F
:10306000075C143326A6A13C2DE9F0410446E07824
:1030700000F0C006E07800F03F05607800F0010045
:1030800098B1EF102846E91705EB5171C910A5EB6F
:10309000C101491C01F0FF080B48006820B10A4833
:1030A000414602683846904700BF607800F008004B
:1030B00030B10548406818B1B011034A51688847DB
:1030C0000020BDE8F08100008800002000B5034624
:1030D00003E04FF47A7000F006F8181EA3F1010126
:1030E0008BB2F6D100BD00EBC001C9004FF0E02269
:1030F0005161002191610521116100BF4FF0E02174
:10310000096901F480310029F8D004214FF0E02250
:10311000116170472DE9F04F8DB00746884615467E
:103120009946DDE9166B0024002030806B49887BCE
:103130005A4605A900F036FA18B1601E0DB0BDE878
:10314000F08F6648807A00F01400002867D09DF860
:10315000140000069DF8151040EA01409DF8161075
:1031600040EA01209DF81710084328609DF81800D8
:1031700000069DF8191040EA01409DF81A1040EA37
:1031800001209DF81B10084368609DF81C00000694
:103190009DF81D1040EA01409DF81E1040EA0120F4
:1031A0009DF81F100843A8609DF8200000069DF8B8
:1031B000211040EA01409DF8221040EA01209DF8CC
:1031C00023100843E86004F11000C4B2286800141A
:1031D0000190686800140290A86800140390E868E1
:1031E0000014049001984043029901FB01000399E7
:1031F00001FB0100049901FB010ABAF1706F02DBC7
:10320000BAF1885F05DD00F02DFA00203080401E05
:1032100094E7B6F9000040F48070308000BF2F487A
:10322000807A00F0400020B305A9601C085C095DAD
:1032300040EA012000B2A8F8000005A9E01C095CE2
:1032400005AAA01C105C41EA002000B2A8F8020008
:1032500005A9601D095C201D105C41EA002000B238
:10326000A8F80400A01DC4B2B6F9000040F00800A0
:1032700030801A48408900F4C07008B305A9601C6A
:10328000085C095D40EA012000B2388005A9E01C15
:10329000095C05AAA01C105C41EA002000B27880FD
:1032A00005A9601D095C201D105C41EA002000B2E8
:1032B000B880A01DC4B2B6F9000040F070003080A4
:1032C0000648807A00F0030018B105A90819FFF735
:1032D000CBFE484600F0A4FA00202FE7880000202B
:1032E00000BF054A128802F04002002AF9D0C2B29B
:1032F000014B1B1D1A8070470038014008B50121A1
:103300002420FEF75DFA0820ADF8000004208DF8B7
:10331000030003208DF8020069460248FDF7A1FD75
:1033200008BD00000008014010B508210848FDF75D
:1033300023FE18B907A0FEF78BFE08E00821044819
:10334000FDF71AFE012802D106A0FEF781FE10BD8E
:1033500000080140CAC7B7F1D3D0B4C5B3A1A3BA1E
:10336000300D0A00CAC7B7F1D3D0B4C5B3A1A3BA10
:10337000310D0A002DE9F04106460F4614461D4660
:10338000FDF7D4FE10B90120BDE8F0817106080EEA
:10339000FDF794FEFDF722FF18B9FDF7FBFE0120B3
:1033A000F2E73846FDF78AFEFDF718FFFDF7BEFE8F
:1033B000012101EB4601C8B2FDF780FEFDF70EFFCB
:1033C0000DE0012C04D10020FDF742FE287003E03F
:1033D0000120FDF73DFE28706D1C601EC4B2002C5C
:1033E000EFD1FDF7D7FE0020CEE72DE9F0410546ED
:1033F0000E4617469846FDF799FE10B90120BDE824
:10340000F0816906080EFDF759FEFDF7E7FE18B9D1
:10341000FDF7C0FE0120F2E73046FDF74FFEFDF755
:10342000DDFE00240BE018F80400FDF747FEFDF771
:10343000D5FE18B9FDF7AEFE0020E0E7641CBC42E3
:10344000F1DBFDF7A7FE0020D9E70000FEF73AFC0C
:103450004FF4E130FEF79EFDFDF732FFFDF7F0FB84
:10346000FEF7ABF8FEF78AF82AA0FEF7F1FDFDF7AC
:1034700055FC30B12EA0FEF7EBFD4FF47A70FFF74C
:1034800025FEFDF7D3FA00F0CDF9FDF7DBFEFFF7DF
:1034900035FF3DE0FDF7DFFB8146494628A0FEF7FA
:1034A000D7FD4846FEF7AAFB29492A48FDF78BFCC1
:1034B000274802782748017827A0FEF7C9FDFDF7C5
:1034C0009FFB044604EB441101EB4100FDF7B7F804
:1034D00007460022264BFDF73AF805462A460B46DA
:1034E00024A0FEF7B5FDFDF753FD8246514625A009
:1034F000FEF7AEFDFDF7BCFE8346594625A0FEF75C
:10350000A7FDFFF711FF4FF47A70FFF7DFFD00BF53
:10351000C0E700000D0A2D2D2D2D2D5448452049C2
:103520004E4954204F4B2D2D2D2D2D2D2D0D0A00A4
:103530004448543131204572726F72200D0A0000E8
:10354000B9E2D5D5A3BA2564204C757820200000B7
:103550000100002000000020CEC2B6C8A3BA256436
:10356000A1E62020CAAAB6C8A3BA2564202000007C
:103570000000B040D1CCCEEDC5A8B6C8A3BA256630
:1035800020200000CAC7B7F1D3D0C8CBA3BA2564A6
:1035900020200000CAC7B7F1D3D0B9E2A3BA25648E
:1035A00020000000F8B504460F4616462C4890F857
:1035B000240010B94FF0FF30F8BD2948807A10B9C7
:1035C0004FF0FF30F8E7264A1268917A244A526891
:1035D00010786B460222FFF7CDFE10B14FF0FF309E
:1035E000EAE79DF801009DF8001040EA0125A54298
:1035F00003DA00203070401EDEE71948406840883A
:10360000B5EB600F17DD164A1268517C144A5268F8
:1036100010786B460122FFF7ADFE10B14FF0FF307E
:10362000CAE79DF8000000F0100020B100F01AF881
:103630006FF00100C0E7E2B2094B1B68D97A084B72
:103640005B6818783B46FFF795FE10B14FF0FF30EE
:10365000B2E795FBF4F0401E30700020ACE70000AC
:103660005400002008B56D48807A10B94FF0FF3043
:1036700008BD00200090694A1268D17B674A5268F1
:1036800010786B460122FFF7B0FE10B14FF0FF300B
:10369000EEE7624A12685179604A526810786B46C8
:1036A0000122FFF7A2FE10B14FF0FF30E0E75B4AC6
:1036B00012681179594A526810786B460122FFF757
:1036C00094FE10B14FF0FF30D2E7544890F8240038
:1036D000002850D00C200090504A126811794F4AAF
:1036E000526810786B460122FFF77FFE10B14FF051
:1036F000FF30BDE7C02000904848807A00F001000C
:1037000020B19DF8000040F020000090434A12686C
:103710001179424A526810786B460122FFF765FE24
:1037200010B14FF0FF30A3E73C48407C10B10220BD
:10373000009001E000200090384A1268D17B374A9F
:10374000526810786B460122FFF74FFE10B14FF020
:10375000FF308DE700200090304A126851792F4ADF
:10376000526810786B460122FFF73FFE002852D0C6
:103770004FF0FF307CE704200090284A126811794E
:10378000264A526810786B460122FFF72EFE10B1D0
:103790004FF0FF306CE72148807C20B91F48807AC9
:1037A00000F0010010B94020009001E0602000907E
:1037B0001A4A12681179194A526810786B46012228
:1037C000FFF713FE10B14FF0FF3051E71348407C74
:1037D00010B10120009001E0002000900F4A126813
:1037E000D17B0E4A526810786B460122FFF7FDFD2F
:1037F00010B14FF0FF303BE7084A12685179074A91
:1038000052681078054B10330122FFF7EEFD10B11E
:103810004FF0FF302CE700202AE700005400002082
:103820007047000008B501212420FDF7C9FF0420DE
:103830008DF803004020ADF8000003208DF8020051
:1038400069460248FDF70DFB08BD00000008014075
:103850002DE9F04106460F46FDF796F8041E0D4689
:1038600018BF0120284320F00040C0F17F6000F124
:10387000E040C00F0ED0301C18BF0120384320F0AC
:103880000040C0F17F6000F1E040C00F04BF0120A4
:10389000FEF78EFC20462946BDE8F08100000000BE
:1038A00000000000002F00000000070007000014C7
:1038B0007F147F1400242A7F2A12006264081323D5
:1038C00000364955225000000503000000001C226C
:1038D0004100000041221C000014083E08140008AA
:1038E000083E0808000000A060000008080808085A
:1038F000000060600000002010080402003E5149F2
:10390000453E0000427F400000426151494600218F
:1039100041454B31001814127F10002745454539A9
:10392000003C4A4949300001710905030036494904
:10393000493600064949291E0000363600000000BD
:103940005636000000081422410000141414141408
:1039500000004122140800020151090600324959B1
:10396000513E007C1211127C007F49494936003ECD
:1039700041414122007F4141221C007F4949494188
:10398000007F09090901003E4149497A007F080882
:10399000087F0000417F4100002040413F01007F3F
:1039A00008142241007F40404040007F020C027F0B
:1039B000007F0408107F003E4141413E007F09091D
:1039C0000906003E4151215E007F09192946004643
:1039D000494949310001017F0101003F4040403F1A
:1039E000001F2040201F003F4038403F0063140864
:1039F000146300070870080700615149454300003F
:103A00007F41410000552A552A55000041417F0061
:103A10000004020102040040404040400000010256
:103A20000400002054545478007F4844443800383F
:103A30004444442000384444487F003854545418C7
:103A400000087E0901020018A4A4A47C007F0804D9
:103A500004780000447D4000004080847D00007FA9
:103A6000102844000000417F4000007C04180478C6
:103A7000007C0804047800384444443800FC2424C2
:103A800024180018242418FC007C080404080048AA
:103A90005454542000043F444020003C4040207CCB
:103AA000001C2040201C003C4030403C00442810BA
:103AB0002844001CA0A0A07C004464544C4414146E
:103AC00014141414000000000000000000000000A6
:103AD00000000000000000F80000000000000033BB
:103AE0003000000000100C06100C06000000000062
:103AF0000000000040C07840C0784000043F04044B
:103B00003F040400007088FC08300000001820FF0B
:103B1000211E0000F008F000E018000000211C0346
:103B20001E211E0000F00888700000001E212324C2
:103B30001927211010160E000000000000000000E0
:103B400000000000000000E0180402000000000770
:103B50001820400000020418E00000000040201877
:103B600007000000404080F0804040000202010F4A
:103B700001020200000000F0000000000101011F2E
:103B800001010100000000000000000080B0700092
:103B90000000000000000000000000000001010122
:103BA00001010101000000000000000000303000B1
:103BB000000000000000000080601804006018068B
:103BC0000100000000E010080810E000000F1020C5
:103BD00020100F00001010F8000000000020203F0F
:103BE0002020000000700808088870000030282499
:103BF000222130000030088888483000001820203A
:103C000020110E000000C02010F80000000704245E
:103C1000243F240000F808888808080000192120A3
:103C200020110E0000E0108888180000000F1120FD
:103C300020110E0000380808C83808000000003FB6
:103C4000000000000070880808887000001C222115
:103C500021221C0000E010080810E00000003122C2
:103C600022110F00000000C0C00000000000003062
:103C700030000000000000800000000000008060B4
:103C80000000000000008040201008000001020435
:103C9000081020004040404040404000040404041C
:103CA00004040400000810204080000000201008D8
:103CB00004020100007048080808F000000000300D
:103CC00036010000C030C828E810E000071827249B
:103CD00023140B000000C038E0000000203C230249
:103CE0000227382008F8888888700000203F2020AC
:103CF00020110E00C03008080808380007182020DE
:103D00002010080008F808080810E000203F2020D4
:103D100020100F0008F88888E8081000203F2020B5
:103D20002320180008F88888E8081000203F2000A9
:103D300003000000C03008080838000007182020E1
:103D4000221E020008F808000008F808203F2101A0
:103D500001213F20000808F8080800000020203F4B
:103D60002020000000000808F8080800C0808080BB
:103D70007F00000008F888C028180800203F2001B4
:103D80002638200008F8080000000000203F20200E
:103D90002020300008F8F800F8F80800203F003F25
:103DA000003F200008F830C00008F808203F20003D
:103DB00007183F00E01008080810E0000F1020204E
:103DC00020100F0008F808080808F000203F210123
:103DD00001010000E01008080810E0000F1824247A
:103DE00038504F0008F8888888887000203F2000ED
:103DF000030C3020007088080808380000382021A3
:103E000021221C00180808F8080818000000203FAC
:103E10002000000008F808000008F808001F202013
:103E200020201F000878880000C8380800000738E4
:103E30000E010000F80800F80008F800033C070035
:103E4000073C0300081868808068180820302C039D
:103E5000032C30200838C800C83808000000203F74
:103E60002000000010080808C83808002038262163
:103E700020201800000000FE020202000000007F67
:103E800040404000000C30C0000000000000000175
:103E90000638C00000020202FE0000000040404060
:103EA0007F00000000000402020204000000000085
:103EB0000000000000000000000000008080808002
:103EC00080808080000202040000000000000000EA
:103ED0000000000000008080808000000019242283
:103EE00022223F2008F8008080000000003F1120BF
:103EF00020110E000000008080800000000E1120C4
:103F000020201100000000808088F800000E1120A1
:103F100020103F200000808080800000001F2222AF
:103F200022221300008080F0888888180020203F1B
:103F3000202000000000808080808000006B94942E
:103F40009493600008F8008080800000203F2100EA
:103F500000203F2000809898000000000020203FB3
:103F600020200000000000809898000000C08080A1
:103F7000807F000008F8000080808000203F24023D
:103F80002D302000000808F8000000000020203F2D
:103F9000202000008080808080808000203F2000E2
:103FA0003F20003F8080008080800000203F210073
:103FB00000203F200000808080800000001F202023
:103FC00020201F00808000808000000080FFA12052
:103FD00020110E000000008080808000000E112063
:103FE00020A0FF80808080008080800020203F21F2
:103FF00020000100000080808080800000332424A5
:1040000024241900008080E0808000000000001F50
:10401000202000008080000000808000001F202001
:1040200020103F20808080000080808000010E30C2
:104030000806010080800080008080800F300C0323
:104040000C300F0000808000808080000020312E26
:104050000E312000808080000080808080818E7002
:104060001806010000808080808080000021302CB4
:104070002221300000000000807C020200000000CD
:10408000003F404000000000FF0000000000000072
:10409000FF0000000002027C800000000040403F62
:1040A00000000000000601010202040400000000FC
:1040B000000000006800000476005401F7FD0001D4
:1040C00075191A0C6A231B1C1F207274433B41385C
:1040D000393A6B6C376F06246D6E700083000000F8
:1040E0000008000000010018320005000000204117
:1040F0000000D242295C0F3E9A99993E3333733FB8
:10410000295C0F3E00000000555555555555C53FDB
:104110007D6FEB0312D6D4BF5544880E55C1C93FFD
:104120003B8F68B52882A4BF88B20175E0EF493F94
:1041300009F7FD0DE13D023F4B2D8A1C273A03C0D4
:10414000C88A599CE52A004059018D1B6C06E6BFC0
:1041500082922EB1C5B8B33F4FBB610567ACDD3F5E
:10416000182D4454FB21E93F9BF681D20B73EF3F9E
:10417000182D4454FB21F93FE2652F227F2B7A3C16
:10418000075C143326A6813CBDCBF07A8807703CCF
:10419000075C143326A6913CC4EB98999999C9BF42
:1041A000711623FEC671BCBF6D9A74AFF2B0B3BF77
:1041B0009AFDDE522DDEADBF2F6C6A2C44B4A2BF37
:1041C0000D5555555555D53FFF8300922449C23FA3
:1041D0006E204CC5CD45B73F513DD0A0660DB13FD7
:1041E000EB0D76244B7BA93F11DA22E33AAD903FE9
:1041F000000000000000000018420008000000203D
:104200008800000090210008A042000888000020DB
:1042100018050000A02100080000000000000000B8
:104220000000000000000000000000000102030484
:104230000102030406070809020406080000000042
:104240000000000000000000000000000000803FAF
:10425000000000000000000000000000FF0000005F
:10426000FF0000000100000000000000C040000846
:10427000B440000800000000000000000000000042
:10428000000000000000000000000000000000002E
:1042900000000000DC4000080000000000000000FA
:0400000508000145A9
:00000001FF
